{"contracts/AgentRegistryAndVault.sol":{"AgentRegistry":{"abi":[{"inputs":[],"stateMutability":"nonpayable","type":"constructor"},{"anonymous":false,"inputs":[{"indexed":true,"internalType":"address","name":"agentId","type":"address"}],"name":"AgentDeregistered","type":"event"},{"anonymous":false,"inputs":[{"indexed":true,"internalType":"address","name":"agentId","type":"address"},{"indexed":false,"internalType":"address","name":"vaultAddress","type":"address"},{"indexed":false,"internalType":"bytes32[]","name":"capabilities","type":"bytes32[]"},{"indexed":false,"internalType":"uint256","name":"timestamp","type":"uint256"}],"name":"AgentRegistered","type":"event"},{"anonymous":false,"inputs":[{"indexed":true,"internalType":"address","name":"agentId","type":"address"},{"indexed":false,"internalType":"string","name":"reason","type":"string"}],"name":"AgentSuspended","type":"event"},{"anonymous":false,"inputs":[{"indexed":true,"internalType":"address","name":"agentId","type":"address"},{"indexed":false,"internalType":"bytes32[]","name":"capabilities","type":"bytes32[]"}],"name":"CapabilitiesUpdated","type":"event"},{"anonymous":false,"inputs":[{"indexed":true,"internalType":"address","name":"agentId","type":"address"},{"indexed":false,"internalType":"uint256","name":"previousScore","type":"uint256"},{"indexed":false,"internalType":"uint256","name":"newScore","type":"uint256"},{"indexed":false,"internalType":"bytes32","name":"trigger","type":"bytes32"}],"name":"ReputationUpdated","type":"event"},{"inputs":[],"name":"agentCount","outputs":[{"internalType":"uint256","name":"","type":"uint256"}],"stateMutability":"view","type":"function"},{"inputs":[{"internalType":"address","name":"","type":"address"}],"name":"agentVaults","outputs":[{"internalType":"address","name":"","type":"address"}],"stateMutability":"view","type":"function"},{"inputs":[{"internalType":"address","name":"","type":"address"}],"name":"agents","outputs":[{"internalType":"address","name":"agentId","type":"address"},{"components":[{"internalType":"uint256","name":"basePrice","type":"uint256"},{"internalType":"address","name":"currency","type":"address"},{"internalType":"enum IAgentRegistry.PricingType","name":"pricingType","type":"uint8"}],"internalType":"struct IAgentRegistry.PricingModel","name":"pricingModel","type":"tuple"},{"internalType":"uint256","name":"reputationScore","type":"uint256"},{"internalType":"address","name":"vaultAddress","type":"address"},{"internalType":"enum IAgentRegistry.AgentStatus","name":"status","type":"uint8"},{"internalType":"uint256","name":"registeredAt","type":"uint256"},{"internalType":"uint256","name":"totalTasksCompleted","type":"uint256"}],"stateMutability":"view","type":"function"},{"inputs":[{"internalType":"address","name":"agentId","type":"address"}],"name":"deregister","outputs":[],"stateMutability":"nonpayable","type":"function"},{"inputs":[],"name":"disputeResolver","outputs":[{"internalType":"address","name":"","type":"address"}],"stateMutability":"view","type":"function"},{"inputs":[{"internalType":"address","name":"agentId","type":"address"}],"name":"getAgent","outputs":[{"components":[{"internalType":"address","name":"agentId","type":"address"},{"internalType":"bytes32[]","name":"capabilities","type":"bytes32[]"},{"components":[{"internalType":"uint256","name":"basePrice","type":"uint256"},{"internalType":"address","name":"currency","type":"address"},{"internalType":"enum IAgentRegistry.PricingType","name":"pricingType","type":"uint8"}],"internalType":"struct IAgentRegistry.PricingModel","name":"pricingModel","type":"tuple"},{"internalType":"uint256","name":"reputationScore","type":"uint256"},{"internalType":"address","name":"vaultAddress","type":"address"},{"internalType":"enum IAgentRegistry.AgentStatus","name":"status","type":"uint8"},{"internalType":"uint256","name":"registeredAt","type":"uint256"},{"internalType":"uint256","name":"totalTasksCompleted","type":"uint256"}],"internalType":"struct IAgentRegistry.AgentInfo","name":"","type":"tuple"}],"stateMutability":"view","type":"function"},{"inputs":[{"internalType":"address","name":"agentId","type":"address"}],"name":"getVaultAddress","outputs":[{"internalType":"address","name":"","type":"address"}],"stateMutability":"view","type":"function"},{"inputs":[],"name":"owner","outputs":[{"internalType":"address","name":"","type":"address"}],"stateMutability":"view","type":"function"},{"inputs":[{"internalType":"bytes32[]","name":"capabilities","type":"bytes32[]"},{"components":[{"internalType":"uint256","name":"basePrice","type":"uint256"},{"internalType":"address","name":"currency","type":"address"},{"internalType":"enum IAgentRegistry.PricingType","name":"pricingType","type":"uint8"}],"internalType":"struct IAgentRegistry.PricingModel","name":"pricingModel","type":"tuple"},{"internalType":"bytes","name":"routingConfig","type":"bytes"}],"name":"register","outputs":[],"stateMutability":"nonpayable","type":"function"},{"inputs":[{"internalType":"address","name":"_taskEscrow","type":"address"},{"internalType":"address","name":"_disputeResolver","type":"address"}],"name":"setRoles","outputs":[],"stateMutability":"nonpayable","type":"function"},{"inputs":[{"internalType":"address","name":"agentId","type":"address"},{"internalType":"string","name":"reason","type":"string"}],"name":"suspend","outputs":[],"stateMutability":"nonpayable","type":"function"},{"inputs":[],"name":"taskEscrow","outputs":[{"internalType":"address","name":"","type":"address"}],"stateMutability":"view","type":"function"},{"inputs":[{"internalType":"address","name":"agentId","type":"address"},{"internalType":"bytes32[]","name":"capabilities","type":"bytes32[]"}],"name":"updateCapabilities","outputs":[],"stateMutability":"nonpayable","type":"function"},{"inputs":[{"internalType":"address","name":"agentId","type":"address"},{"components":[{"internalType":"uint256","name":"basePrice","type":"uint256"},{"internalType":"address","name":"currency","type":"address"},{"internalType":"enum IAgentRegistry.PricingType","name":"pricingType","type":"uint8"}],"internalType":"struct IAgentRegistry.PricingModel","name":"pricingModel","type":"tuple"}],"name":"updatePricing","outputs":[],"stateMutability":"nonpayable","type":"function"},{"inputs":[{"internalType":"address","name":"agentId","type":"address"},{"internalType":"int256","name":"deltaScore","type":"int256"},{"internalType":"bytes32","name":"taskId","type":"bytes32"}],"name":"updateReputation","outputs":[],"stateMutability":"nonpayable","type":"function"},{"inputs":[{"internalType":"address","name":"","type":"address"}],"name":"vaultToAgent","outputs":[{"internalType":"address","name":"","type":"address"}],"stateMutability":"view","type":"function"}],"evm":{"bytecode":{"linkReferences":{},"object":"608060405234801561001057600080fd5b50600080546001600160a01b0319163317905561213d806100326000396000f3fe608060405234801561001057600080fd5b50600436106101005760003560e01c8063df5e4b1611610097578063f6072a1011610066578063f6072a1014610251578063f936a60414610264578063fb3551ff14610277578063fd66091e1461029757600080fd5b8063df5e4b16146101ec578063ef88c31e146101ff578063ef9a95821461022b578063f5a3f4af1461023e57600080fd5b80638da5cb5b116100d35780638da5cb5b14610186578063ac68dc3914610199578063b7dc1284146101ac578063dcb55c56146101c357600080fd5b806327c4ffe114610105578063299621af1461013557806357a271271461015e57806384ac33ec14610173575b600080fd5b600154610118906001600160a01b031681565b6040516001600160a01b0390911681526020015b60405180910390f35b610118610143366004610dbc565b6006602052600090815260409020546001600160a01b031681565b61017161016c366004610e29565b6102bd565b005b610171610181366004610dbc565b610374565b600054610118906001600160a01b031681565b6101716101a7366004610ec3565b6103f3565b6101b560035481565b60405190815260200161012c565b6101186101d1366004610dbc565b6005602052600090815260409020546001600160a01b031681565b6101716101fa366004610f23565b6104d3565b61011861020d366004610dbc565b6001600160a01b039081166000908152600560205260409020541690565b610171610239366004610f59565b61052a565b600254610118906001600160a01b031681565b61017161025f366004610fde565b6108f3565b610171610272366004611017565b610968565b61028a610285366004610dbc565b610a8f565b60405161012c91906110f8565b6102aa6102a5366004610dbc565b610bef565b60405161012c979695949392919061118f565b6000546001600160a01b031633146103095760405162461bcd60e51b815260206004820152600a60248201526927b7363c9037bbb732b960b11b60448201526064015b60405180910390fd5b6001600160a01b03831660008181526004602052604090819020600501805460ff60a01b1916600160a01b179055517f67af208cffe17db653d12ef0d8defd41a77f58715df97b6b9741d10004020d229061036790859085906111e5565b60405180910390a2505050565b80336001600160a01b0382161461039d5760405162461bcd60e51b815260040161030090611214565b6001600160a01b038216600081815260046020526040808220600501805460ff60a01b1916600160a11b179055517fcd7d9ced6282be80b75fa747c535d58e02a973ac92b9707cb663514caa62fb8d9190a25050565b82336001600160a01b0382161461041c5760405162461bcd60e51b815260040161030090611214565b60208211156104635760405162461bcd60e51b81526020600482015260136024820152724d6178203332206361706162696c697469657360681b6044820152606401610300565b6001600160a01b0384166000908152600460205260409020610489906001018484610c99565b50836001600160a01b03167f64ab161a370a5e447844ea44f23c7d9524e733afda1317c9679eb4b69c86640e84846040516104c592919061126d565b60405180910390a250505050565b81336001600160a01b038216146104fc5760405162461bcd60e51b815260040161030090611214565b6001600160a01b038316600090815260046020526040902082906002016105238282611296565b5050505050565b336000908152600460205260409020546001600160a01b0316156105855760405162461bcd60e51b8152602060048201526012602482015271105b1c9958591e481c9959da5cdd195c995960721b6044820152606401610300565b60208411156105cc5760405162461bcd60e51b81526020600482015260136024820152724d6178203332206361706162696c697469657360681b6044820152606401610300565b60006040516105da90610ce4565b604051809103906000f0801580156105f6573d6000803e3d6000fd5b506001549091506001600160a01b038083169163c0c53b8b913391166106226040890160208a01610dbc565b60405160e085901b6001600160e01b03191681526001600160a01b03938416600482015291831660248301529091166044820152606401600060405180830381600087803b15801561067357600080fd5b505af1158015610687573d6000803e3d6000fd5b505050506000604051806101000160405280336001600160a01b031681526020018888808060200260200160405190810160405280939291908181526020018383602002808284376000920191909152505050908252506020016106f0368890038801886112f2565b81526101f460208201526001600160a01b03841660408201526060016000815242602080830191909152600060409283018190523381526004825291909120825181546001600160a01b0319166001600160a01b039091161781558282015180519394508493919261076a92600185019290910190610cf1565b506040828101518051600280850191825560208301516003860180546001600160a01b039092166001600160a01b031983168117825595850151949593949390926001600160a81b03199092161790600160a01b9084908111156107d0576107d0611087565b021790555050506060820151600482015560808201516005820180546001600160a01b039092166001600160a01b031983168117825560a0850151926001600160a81b03191617600160a01b83600281111561082e5761082e611087565b021790555060c082015160068083019190915560e09092015160079091015533600081815260056020908152604080832080546001600160a01b0389166001600160a01b031991821681179092559084529490915281208054909316909117909155600380549161089e8361137f565b9190505550336001600160a01b03167f386c5306087da5aa6b1e8ac51eddda3163bffc5543b742a7ed4ccc12a83fa546838989426040516108e29493929190611398565b60405180910390a250505050505050565b6000546001600160a01b0316331461093a5760405162461bcd60e51b815260206004820152600a60248201526927b7363c9037bbb732b960b11b6044820152606401610300565b600180546001600160a01b039384166001600160a01b03199182161790915560028054929093169116179055565b6001546001600160a01b031633148061098b57506002546001600160a01b031633145b6109c65760405162461bcd60e51b815260206004820152600c60248201526b155b985d5d1a1bdc9a5e995960a21b6044820152606401610300565b6001600160a01b038316600090815260046020819052604082209081015490916109f085836113ce565b905060008112156109ff575060005b6103e8811315610a0e57506103e85b600483018190556000851315610a3657600783018054906000610a308361137f565b91905055505b600483015460408051848152602081019290925281018590526001600160a01b038716907f74d25cc3b3b47b2f164faa448eb9fff9f58e50bd977ed460110f7f339ee5a3d89060600160405180910390a2505050505050565b610a97610d2c565b6001600160a01b0380831660009081526004602090815260409182902082516101008101845281549094168452600181018054845181850281018501909552808552919385840193909290830182828015610b1157602002820191906000526020600020905b815481526020019060010190808311610afd575b50505091835250506040805160608101825260028481018054835260038601546001600160a01b038116602080860191909152909501949293909290840191600160a01b90910460ff1690811115610b6b57610b6b611087565b6002811115610b7c57610b7c611087565b90525081526004820154602082015260058201546001600160a01b0381166040830152606090910190600160a01b900460ff166002811115610bc057610bc0611087565b6002811115610bd157610bd1611087565b81526006820154602082015260079091015460409091015292915050565b6004602090815260009182526040918290208054835160608101855260028084018054835260038501546001600160a01b0380821697850197909752959093169593949193840191600160a01b900460ff1690811115610c5157610c51611087565b6002811115610c6257610c62611087565b905250600482015460058301546006840154600790940154929391926001600160a01b03821692600160a01b90920460ff16919087565b828054828255906000526020600020908101928215610cd4579160200282015b82811115610cd4578235825591602001919060010190610cb9565b50610ce0929150610d8f565b5090565b610d11806113f783390190565b828054828255906000526020600020908101928215610cd4579160200282015b82811115610cd4578251825591602001919060010190610d11565b60408051610100810182526000815260606020820152908101610d6660408051606081018252600080825260208201819052909182015290565b815260006020820181905260408201819052606082018190526080820181905260a09091015290565b5b80821115610ce05760008155600101610d90565b6001600160a01b0381168114610db957600080fd5b50565b600060208284031215610dce57600080fd5b8135610dd981610da4565b9392505050565b60008083601f840112610df257600080fd5b50813567ffffffffffffffff811115610e0a57600080fd5b602083019150836020828501011115610e2257600080fd5b9250929050565b600080600060408486031215610e3e57600080fd5b8335610e4981610da4565b9250602084013567ffffffffffffffff811115610e6557600080fd5b610e7186828701610de0565b9497909650939450505050565b60008083601f840112610e9057600080fd5b50813567ffffffffffffffff811115610ea857600080fd5b6020830191508360208260051b8501011115610e2257600080fd5b600080600060408486031215610ed857600080fd5b8335610ee381610da4565b9250602084013567ffffffffffffffff811115610eff57600080fd5b610e7186828701610e7e565b600060608284031215610f1d57600080fd5b50919050565b60008060808385031215610f3657600080fd5b8235610f4181610da4565b9150610f508460208501610f0b565b90509250929050565b600080600080600060a08688031215610f7157600080fd5b853567ffffffffffffffff80821115610f8957600080fd5b610f9589838a01610e7e565b9097509550859150610faa8960208a01610f0b565b94506080880135915080821115610fc057600080fd5b50610fcd88828901610de0565b969995985093965092949392505050565b60008060408385031215610ff157600080fd5b8235610ffc81610da4565b9150602083013561100c81610da4565b809150509250929050565b60008060006060848603121561102c57600080fd5b833561103781610da4565b95602085013595506040909401359392505050565b600081518084526020808501945080840160005b8381101561107c57815187529582019590820190600101611060565b509495945050505050565b634e487b7160e01b600052602160045260246000fd5b60038110610db957634e487b7160e01b600052602160045260246000fd5b805182526020808201516001600160a01b03169083015260408101516110e08161109d565b806040840152505050565b6110f48161109d565b9052565b602080825282516001600160a01b031682820152820151610140604083018190526000919061112b61016085018361104c565b9150604085015161113f60608601826110bb565b50606085015160c085015260808501516001600160a01b031660e085015260a08501516111706101008601826110eb565b5060c085015161012085015260e0909401519390920192909252919050565b6001600160a01b0388811682526101208201906111af602084018a6110bb565b60808301889052861660a08301526111c68561109d565b8460c08301528360e08301528261010083015298975050505050505050565b60208152816020820152818360408301376000818301604090810191909152601f909201601f19160101919050565b6020808252600d908201526c139bdd081d1a19481859d95b9d609a1b604082015260600190565b81835260006001600160fb1b0383111561125457600080fd5b8260051b80836020870137939093016020019392505050565b60208152600061128160208301848661123b565b949350505050565b60038110610db957600080fd5b813581556001810160208301356112ac81610da4565b815460408501356112bc81611289565b6112c58161109d565b60ff60a01b60a09190911b166001600160a01b03929092166001600160a81b031991909116171790555050565b60006060828403121561130457600080fd5b6040516060810181811067ffffffffffffffff8211171561133557634e487b7160e01b600052604160045260246000fd5b60405282358152602083013561134a81610da4565b6020820152604083013561135d81611289565b60408201529392505050565b634e487b7160e01b600052601160045260246000fd5b60006001820161139157611391611369565b5060010190565b6001600160a01b03851681526060602082018190526000906113bd908301858761123b565b905082604083015295945050505050565b80820182811260008312801582168215821617156113ee576113ee611369565b50509291505056fe608060405234801561001057600080fd5b50610cf1806100206000396000f3fe608060405234801561001057600080fd5b50600436106100ff5760003560e01c80637b80889b1161009757806395858551116100665780639585855114610253578063ab2f0e5114610266578063c0c53b8b1461026f578063e5a6b10f1461028257600080fd5b80637b80889b146101e15780638da5cb5b146101f85780638f2900d51461020b5780638f76464d1461021e57600080fd5b806327c4ffe1116100d357806327c4ffe11461018d5780633892cc3e146101b8578063443e46a2146101cb57806350e49764146101d957600080fd5b8062f714ce146101045780630312df521461011957806312065fe014610145578063158ef93e14610168575b600080fd5b610117610112366004610a2a565b610295565b005b60075461012d9062010000900461ffff1681565b60405161ffff90911681526020015b60405180910390f35b61014d610396565b6040805193845260208401929092529082015260600161013c565b60075461017d90640100000000900460ff1681565b604051901515815260200161013c565b6001546101a0906001600160a01b031681565b6040516001600160a01b03909116815260200161013c565b6101176101c6366004610a6a565b6103bc565b60075461012d9061ffff1681565b61011761059c565b6101ea60045481565b60405190815260200161013c565b6000546101a0906001600160a01b031681565b61014d610219366004610b01565b6106ea565b61023161022c366004610b01565b61071d565b604080516001600160a01b03909316835261ffff90911660208301520161013c565b610117610261366004610b1a565b610753565b6101ea60035481565b61011761027d366004610b53565b610932565b6002546101a0906001600160a01b031681565b6000546001600160a01b031633146102e05760405162461bcd60e51b81526020600482015260096024820152682737ba1037bbb732b960b91b60448201526064015b60405180910390fd5b8160035410156103325760405162461bcd60e51b815260206004820152601e60248201527f496e73756666696369656e7420617661696c61626c652062616c616e6365000060448201526064016102d7565b81600360008282546103449190610ba9565b9091555050604080513081526001600160a01b03831660208201529081018390527f2717ead6b9200dd235aad468c9809ea400fe33ac69b5bfaa6d3e90fc922b63989060600160405180910390a15050565b60008060006003546004546004546003546103b19190610bc2565b925092509250909192565b6000546001600160a01b031633146104025760405162461bcd60e51b81526020600482015260096024820152682737ba1037bbb732b960b91b60448201526064016102d7565b6000805b8481101561045a5785858281811061042057610420610bd5565b90506040020160200160208101906104389190610beb565b6104469061ffff1683610bc2565b91508061045281610c0f565b915050610406565b508161ffff168361ffff16826104709190610bc2565b61047a9190610bc2565b612710146104c25760405162461bcd60e51b81526020600482015260156024820152744d7573742073756d20746f2031303030302042505360581b60448201526064016102d7565b6104ce600660006109d1565b60005b8481101561052e5760068686838181106104ed576104ed610bd5565b835460018101855560009485526020909420604090910292909201929190910190506105198282610c28565b5050808061052690610c0f565b9150506104d1565b506007805461ffff85811663ffffffff19909216821762010000918616918202179092556040805130815260208101929092528101919091527f4c25f8d3ab0b0927c6b76eb8c03caa690e0f6269eaee15b89ea67c71121acaf9906060015b60405180910390a15050505050565b6000805b600554811015610672576000600582815481106105bf576105bf610bd5565b9060005260206000209060030201600001541180156106025750600581815481106105ec576105ec610bd5565b9060005260206000209060030201600101544310155b15610660576005818154811061061a5761061a610bd5565b906000526020600020906003020160000154826106379190610bc2565b915060006005828154811061064e5761064e610bd5565b60009182526020909120600390910201555b8061066a81610c0f565b9150506105a0565b50600081116106b75760405162461bcd60e51b81526020600482015260116024820152704e6f20756e6c6f636b65642066756e647360781b60448201526064016102d7565b80600460008282546106c99190610ba9565b9250508190555080600360008282546106e29190610bc2565b909155505050565b600581815481106106fa57600080fd5b600091825260209091206003909102018054600182015460029092015490925083565b6006818154811061072d57600080fd5b6000918252602090912001546001600160a01b0381169150600160a01b900461ffff1682565b6001546001600160a01b0316331461079e5760405162461bcd60e51b815260206004820152600e60248201526d4e6f74205461736b457363726f7760901b60448201526064016102d7565b600754600090612710906107b69061ffff1686610c82565b6107c09190610c99565b600754909150600090612710906107e19062010000900461ffff1687610c82565b6107eb9190610c99565b905081156108695781600460008282546108059190610bc2565b909155505060408051606081019091528281526005906020810161082c4362034bc0610bc2565b8152602090810187905282546001818101855560009485529382902083516003909202019081559082015192810192909255604001516002909101555b80156108875780600360008282546108819190610bc2565b90915550505b60005b6006548110156108ec576000612710600683815481106108ac576108ac610bd5565b6000918252602090912001546108cd90600160a01b900461ffff1689610c82565b6108d79190610c99565b508190506108e481610c0f565b91505061088a565b506040805185815260208101879052908101839052606081018290527fbcfa5b81e5dfeb9cca18ff55beeefe4f9f70bcc7c4d07a1f0bb68b51b9ba9f229060800161058d565b600754640100000000900460ff161561097c5760405162461bcd60e51b815260206004820152600c60248201526b105b1c9958591e481a5b9a5d60a21b60448201526064016102d7565b600080546001600160a01b03199081166001600160a01b0395861617909155600180548216938516939093179092556002805490921692169190911790556007805464ffffffffff19166401138807d0179055565b50805460008255906000526020600020908101906109ef91906109f2565b50565b5b80821115610a115780546001600160b01b03191681556001016109f3565b5090565b6001600160a01b03811681146109ef57600080fd5b60008060408385031215610a3d57600080fd5b823591506020830135610a4f81610a15565b809150509250929050565b61ffff811681146109ef57600080fd5b60008060008060608587031215610a8057600080fd5b843567ffffffffffffffff80821115610a9857600080fd5b818701915087601f830112610aac57600080fd5b813581811115610abb57600080fd5b8860208260061b8501011115610ad057600080fd5b60209283019650945050850135610ae681610a5a565b91506040850135610af681610a5a565b939692955090935050565b600060208284031215610b1357600080fd5b5035919050565b600080600060608486031215610b2f57600080fd5b83359250602084013591506040840135610b4881610a15565b809150509250925092565b600080600060608486031215610b6857600080fd5b8335610b7381610a15565b92506020840135610b8381610a15565b91506040840135610b4881610a15565b634e487b7160e01b600052601160045260246000fd5b81810381811115610bbc57610bbc610b93565b92915050565b80820180821115610bbc57610bbc610b93565b634e487b7160e01b600052603260045260246000fd5b600060208284031215610bfd57600080fd5b8135610c0881610a5a565b9392505050565b600060018201610c2157610c21610b93565b5060010190565b8135610c3381610a15565b81546001600160a01b031981166001600160a01b039290921691821783556020840135610c5f81610a5a565b6001600160b01b03199190911690911760a09190911b61ffff60a01b1617905550565b8082028115828204841417610bbc57610bbc610b93565b600082610cb657634e487b7160e01b600052601260045260246000fd5b50049056fea2646970667358221220c8cf772b7757781d2936873b8f079b0161ffb95d7d6749f0ddf8704cc415a78f64736f6c63430008140033a2646970667358221220279bfe72fdd3366dcad7e73c295c4d777f9e64a690a22735db1b535513adc7d964736f6c63430008140033","opcodes":"PUSH1 0x80 PUSH1 0x40 MSTORE CALLVALUE DUP1 ISZERO PUSH2 0x10 JUMPI PUSH1 0x0 DUP1 REVERT JUMPDEST POP PUSH1 0x0 DUP1 SLOAD PUSH1 0x1 PUSH1 0x1 PUSH1 0xA0 SHL SUB NOT AND CALLER OR SWAP1 SSTORE PUSH2 0x213D DUP1 PUSH2 0x32 PUSH1 0x0 CODECOPY PUSH1 0x0 RETURN INVALID PUSH1 0x80 PUSH1 0x40 MSTORE CALLVALUE DUP1 ISZERO PUSH2 0x10 JUMPI PUSH1 0x0 DUP1 REVERT JUMPDEST POP PUSH1 0x4 CALLDATASIZE LT PUSH2 0x100 JUMPI PUSH1 0x0 CALLDATALOAD PUSH1 0xE0 SHR DUP1 PUSH4 0xDF5E4B16 GT PUSH2 0x97 JUMPI DUP1 PUSH4 0xF6072A10 GT PUSH2 0x66 JUMPI DUP1 PUSH4 0xF6072A10 EQ PUSH2 0x251 JUMPI DUP1 PUSH4 0xF936A604 EQ PUSH2 0x264 JUMPI DUP1 PUSH4 0xFB3551FF EQ PUSH2 0x277 JUMPI DUP1 PUSH4 0xFD66091E EQ PUSH2 0x297 JUMPI PUSH1 0x0 DUP1 REVERT JUMPDEST DUP1 PUSH4 0xDF5E4B16 EQ PUSH2 0x1EC JUMPI DUP1 PUSH4 0xEF88C31E EQ PUSH2 0x1FF JUMPI DUP1 PUSH4 0xEF9A9582 EQ PUSH2 0x22B JUMPI DUP1 PUSH4 0xF5A3F4AF EQ PUSH2 0x23E JUMPI PUSH1 0x0 DUP1 REVERT JUMPDEST DUP1 PUSH4 0x8DA5CB5B GT PUSH2 0xD3 JUMPI DUP1 PUSH4 0x8DA5CB5B EQ PUSH2 0x186 JUMPI DUP1 PUSH4 0xAC68DC39 EQ PUSH2 0x199 JUMPI DUP1 PUSH4 0xB7DC1284 EQ PUSH2 0x1AC JUMPI DUP1 PUSH4 0xDCB55C56 EQ PUSH2 0x1C3 JUMPI PUSH1 0x0 DUP1 REVERT JUMPDEST DUP1 PUSH4 0x27C4FFE1 EQ PUSH2 0x105 JUMPI DUP1 PUSH4 0x299621AF EQ PUSH2 0x135 JUMPI DUP1 PUSH4 0x57A27127 EQ PUSH2 0x15E JUMPI DUP1 PUSH4 0x84AC33EC EQ PUSH2 0x173 JUMPI JUMPDEST PUSH1 0x0 DUP1 REVERT JUMPDEST PUSH1 0x1 SLOAD PUSH2 0x118 SWAP1 PUSH1 0x1 PUSH1 0x1 PUSH1 0xA0 SHL SUB AND DUP2 JUMP JUMPDEST PUSH1 0x40 MLOAD PUSH1 0x1 PUSH1 0x1 PUSH1 0xA0 SHL SUB SWAP1 SWAP2 AND DUP2 MSTORE PUSH1 0x20 ADD JUMPDEST PUSH1 0x40 MLOAD DUP1 SWAP2 SUB SWAP1 RETURN JUMPDEST PUSH2 0x118 PUSH2 0x143 CALLDATASIZE PUSH1 0x4 PUSH2 0xDBC JUMP JUMPDEST PUSH1 0x6 PUSH1 0x20 MSTORE PUSH1 0x0 SWAP1 DUP2 MSTORE PUSH1 0x40 SWAP1 KECCAK256 SLOAD PUSH1 0x1 PUSH1 0x1 PUSH1 0xA0 SHL SUB AND DUP2 JUMP JUMPDEST PUSH2 0x171 PUSH2 0x16C CALLDATASIZE PUSH1 0x4 PUSH2 0xE29 JUMP JUMPDEST PUSH2 0x2BD JUMP JUMPDEST STOP JUMPDEST PUSH2 0x171 PUSH2 0x181 CALLDATASIZE PUSH1 0x4 PUSH2 0xDBC JUMP JUMPDEST PUSH2 0x374 JUMP JUMPDEST PUSH1 0x0 SLOAD PUSH2 0x118 SWAP1 PUSH1 0x1 PUSH1 0x1 PUSH1 0xA0 SHL SUB AND DUP2 JUMP JUMPDEST PUSH2 0x171 PUSH2 0x1A7 CALLDATASIZE PUSH1 0x4 PUSH2 0xEC3 JUMP JUMPDEST PUSH2 0x3F3 JUMP JUMPDEST PUSH2 0x1B5 PUSH1 0x3 SLOAD DUP2 JUMP JUMPDEST PUSH1 0x40 MLOAD SWAP1 DUP2 MSTORE PUSH1 0x20 ADD PUSH2 0x12C JUMP JUMPDEST PUSH2 0x118 PUSH2 0x1D1 CALLDATASIZE PUSH1 0x4 PUSH2 0xDBC JUMP JUMPDEST PUSH1 0x5 PUSH1 0x20 MSTORE PUSH1 0x0 SWAP1 DUP2 MSTORE PUSH1 0x40 SWAP1 KECCAK256 SLOAD PUSH1 0x1 PUSH1 0x1 PUSH1 0xA0 SHL SUB AND DUP2 JUMP JUMPDEST PUSH2 0x171 PUSH2 0x1FA CALLDATASIZE PUSH1 0x4 PUSH2 0xF23 JUMP JUMPDEST PUSH2 0x4D3 JUMP JUMPDEST PUSH2 0x118 PUSH2 0x20D CALLDATASIZE PUSH1 0x4 PUSH2 0xDBC JUMP JUMPDEST PUSH1 0x1 PUSH1 0x1 PUSH1 0xA0 SHL SUB SWAP1 DUP2 AND PUSH1 0x0 SWAP1 DUP2 MSTORE PUSH1 0x5 PUSH1 0x20 MSTORE PUSH1 0x40 SWAP1 KECCAK256 SLOAD AND SWAP1 JUMP JUMPDEST PUSH2 0x171 PUSH2 0x239 CALLDATASIZE PUSH1 0x4 PUSH2 0xF59 JUMP JUMPDEST PUSH2 0x52A JUMP JUMPDEST PUSH1 0x2 SLOAD PUSH2 0x118 SWAP1 PUSH1 0x1 PUSH1 0x1 PUSH1 0xA0 SHL SUB AND DUP2 JUMP JUMPDEST PUSH2 0x171 PUSH2 0x25F CALLDATASIZE PUSH1 0x4 PUSH2 0xFDE JUMP JUMPDEST PUSH2 0x8F3 JUMP JUMPDEST PUSH2 0x171 PUSH2 0x272 CALLDATASIZE PUSH1 0x4 PUSH2 0x1017 JUMP JUMPDEST PUSH2 0x968 JUMP JUMPDEST PUSH2 0x28A PUSH2 0x285 CALLDATASIZE PUSH1 0x4 PUSH2 0xDBC JUMP JUMPDEST PUSH2 0xA8F JUMP JUMPDEST PUSH1 0x40 MLOAD PUSH2 0x12C SWAP2 SWAP1 PUSH2 0x10F8 JUMP JUMPDEST PUSH2 0x2AA PUSH2 0x2A5 CALLDATASIZE PUSH1 0x4 PUSH2 0xDBC JUMP JUMPDEST PUSH2 0xBEF JUMP JUMPDEST PUSH1 0x40 MLOAD PUSH2 0x12C SWAP8 SWAP7 SWAP6 SWAP5 SWAP4 SWAP3 SWAP2 SWAP1 PUSH2 0x118F JUMP JUMPDEST PUSH1 0x0 SLOAD PUSH1 0x1 PUSH1 0x1 PUSH1 0xA0 SHL SUB AND CALLER EQ PUSH2 0x309 JUMPI PUSH1 0x40 MLOAD PUSH3 0x461BCD PUSH1 0xE5 SHL DUP2 MSTORE PUSH1 0x20 PUSH1 0x4 DUP3 ADD MSTORE PUSH1 0xA PUSH1 0x24 DUP3 ADD MSTORE PUSH10 0x27B7363C9037BBB732B9 PUSH1 0xB1 SHL PUSH1 0x44 DUP3 ADD MSTORE PUSH1 0x64 ADD JUMPDEST PUSH1 0x40 MLOAD DUP1 SWAP2 SUB SWAP1 REVERT JUMPDEST PUSH1 0x1 PUSH1 0x1 PUSH1 0xA0 SHL SUB DUP4 AND PUSH1 0x0 DUP2 DUP2 MSTORE PUSH1 0x4 PUSH1 0x20 MSTORE PUSH1 0x40 SWAP1 DUP2 SWAP1 KECCAK256 PUSH1 0x5 ADD DUP1 SLOAD PUSH1 0xFF PUSH1 0xA0 SHL NOT AND PUSH1 0x1 PUSH1 0xA0 SHL OR SWAP1 SSTORE MLOAD PUSH32 0x67AF208CFFE17DB653D12EF0D8DEFD41A77F58715DF97B6B9741D10004020D22 SWAP1 PUSH2 0x367 SWAP1 DUP6 SWAP1 DUP6 SWAP1 PUSH2 0x11E5 JUMP JUMPDEST PUSH1 0x40 MLOAD DUP1 SWAP2 SUB SWAP1 LOG2 POP POP POP JUMP JUMPDEST DUP1 CALLER PUSH1 0x1 PUSH1 0x1 PUSH1 0xA0 SHL SUB DUP3 AND EQ PUSH2 0x39D JUMPI PUSH1 0x40 MLOAD PUSH3 0x461BCD PUSH1 0xE5 SHL DUP2 MSTORE PUSH1 0x4 ADD PUSH2 0x300 SWAP1 PUSH2 0x1214 JUMP JUMPDEST PUSH1 0x1 PUSH1 0x1 PUSH1 0xA0 SHL SUB DUP3 AND PUSH1 0x0 DUP2 DUP2 MSTORE PUSH1 0x4 PUSH1 0x20 MSTORE PUSH1 0x40 DUP1 DUP3 KECCAK256 PUSH1 0x5 ADD DUP1 SLOAD PUSH1 0xFF PUSH1 0xA0 SHL NOT AND PUSH1 0x1 PUSH1 0xA1 SHL OR SWAP1 SSTORE MLOAD PUSH32 0xCD7D9CED6282BE80B75FA747C535D58E02A973AC92B9707CB663514CAA62FB8D SWAP2 SWAP1 LOG2 POP POP JUMP JUMPDEST DUP3 CALLER PUSH1 0x1 PUSH1 0x1 PUSH1 0xA0 SHL SUB DUP3 AND EQ PUSH2 0x41C JUMPI PUSH1 0x40 MLOAD PUSH3 0x461BCD PUSH1 0xE5 SHL DUP2 MSTORE PUSH1 0x4 ADD PUSH2 0x300 SWAP1 PUSH2 0x1214 JUMP JUMPDEST PUSH1 0x20 DUP3 GT ISZERO PUSH2 0x463 JUMPI PUSH1 0x40 MLOAD PUSH3 0x461BCD PUSH1 0xE5 SHL DUP2 MSTORE PUSH1 0x20 PUSH1 0x4 DUP3 ADD MSTORE PUSH1 0x13 PUSH1 0x24 DUP3 ADD MSTORE PUSH19 0x4D6178203332206361706162696C6974696573 PUSH1 0x68 SHL PUSH1 0x44 DUP3 ADD MSTORE PUSH1 0x64 ADD PUSH2 0x300 JUMP JUMPDEST PUSH1 0x1 PUSH1 0x1 PUSH1 0xA0 SHL SUB DUP5 AND PUSH1 0x0 SWAP1 DUP2 MSTORE PUSH1 0x4 PUSH1 0x20 MSTORE PUSH1 0x40 SWAP1 KECCAK256 PUSH2 0x489 SWAP1 PUSH1 0x1 ADD DUP5 DUP5 PUSH2 0xC99 JUMP JUMPDEST POP DUP4 PUSH1 0x1 PUSH1 0x1 PUSH1 0xA0 SHL SUB AND PUSH32 0x64AB161A370A5E447844EA44F23C7D9524E733AFDA1317C9679EB4B69C86640E DUP5 DUP5 PUSH1 0x40 MLOAD PUSH2 0x4C5 SWAP3 SWAP2 SWAP1 PUSH2 0x126D JUMP JUMPDEST PUSH1 0x40 MLOAD DUP1 SWAP2 SUB SWAP1 LOG2 POP POP POP POP JUMP JUMPDEST DUP2 CALLER PUSH1 0x1 PUSH1 0x1 PUSH1 0xA0 SHL SUB DUP3 AND EQ PUSH2 0x4FC JUMPI PUSH1 0x40 MLOAD PUSH3 0x461BCD PUSH1 0xE5 SHL DUP2 MSTORE PUSH1 0x4 ADD PUSH2 0x300 SWAP1 PUSH2 0x1214 JUMP JUMPDEST PUSH1 0x1 PUSH1 0x1 PUSH1 0xA0 SHL SUB DUP4 AND PUSH1 0x0 SWAP1 DUP2 MSTORE PUSH1 0x4 PUSH1 0x20 MSTORE PUSH1 0x40 SWAP1 KECCAK256 DUP3 SWAP1 PUSH1 0x2 ADD PUSH2 0x523 DUP3 DUP3 PUSH2 0x1296 JUMP JUMPDEST POP POP POP POP POP JUMP JUMPDEST CALLER PUSH1 0x0 SWAP1 DUP2 MSTORE PUSH1 0x4 PUSH1 0x20 MSTORE PUSH1 0x40 SWAP1 KECCAK256 SLOAD PUSH1 0x1 PUSH1 0x1 PUSH1 0xA0 SHL SUB AND ISZERO PUSH2 0x585 JUMPI PUSH1 0x40 MLOAD PUSH3 0x461BCD PUSH1 0xE5 SHL DUP2 MSTORE PUSH1 0x20 PUSH1 0x4 DUP3 ADD MSTORE PUSH1 0x12 PUSH1 0x24 DUP3 ADD MSTORE PUSH18 0x105B1C9958591E481C9959DA5CDD195C9959 PUSH1 0x72 SHL PUSH1 0x44 DUP3 ADD MSTORE PUSH1 0x64 ADD PUSH2 0x300 JUMP JUMPDEST PUSH1 0x20 DUP5 GT ISZERO PUSH2 0x5CC JUMPI PUSH1 0x40 MLOAD PUSH3 0x461BCD PUSH1 0xE5 SHL DUP2 MSTORE PUSH1 0x20 PUSH1 0x4 DUP3 ADD MSTORE PUSH1 0x13 PUSH1 0x24 DUP3 ADD MSTORE PUSH19 0x4D6178203332206361706162696C6974696573 PUSH1 0x68 SHL PUSH1 0x44 DUP3 ADD MSTORE PUSH1 0x64 ADD PUSH2 0x300 JUMP JUMPDEST PUSH1 0x0 PUSH1 0x40 MLOAD PUSH2 0x5DA SWAP1 PUSH2 0xCE4 JUMP JUMPDEST PUSH1 0x40 MLOAD DUP1 SWAP2 SUB SWAP1 PUSH1 0x0 CREATE DUP1 ISZERO DUP1 ISZERO PUSH2 0x5F6 JUMPI RETURNDATASIZE PUSH1 0x0 DUP1 RETURNDATACOPY RETURNDATASIZE PUSH1 0x0 REVERT JUMPDEST POP PUSH1 0x1 SLOAD SWAP1 SWAP2 POP PUSH1 0x1 PUSH1 0x1 PUSH1 0xA0 SHL SUB DUP1 DUP4 AND SWAP2 PUSH4 0xC0C53B8B SWAP2 CALLER SWAP2 AND PUSH2 0x622 PUSH1 0x40 DUP10 ADD PUSH1 0x20 DUP11 ADD PUSH2 0xDBC JUMP JUMPDEST PUSH1 0x40 MLOAD PUSH1 0xE0 DUP6 SWAP1 SHL PUSH1 0x1 PUSH1 0x1 PUSH1 0xE0 SHL SUB NOT AND DUP2 MSTORE PUSH1 0x1 PUSH1 0x1 PUSH1 0xA0 SHL SUB SWAP4 DUP5 AND PUSH1 0x4 DUP3 ADD MSTORE SWAP2 DUP4 AND PUSH1 0x24 DUP4 ADD MSTORE SWAP1 SWAP2 AND PUSH1 0x44 DUP3 ADD MSTORE PUSH1 0x64 ADD PUSH1 0x0 PUSH1 0x40 MLOAD DUP1 DUP4 SUB DUP2 PUSH1 0x0 DUP8 DUP1 EXTCODESIZE ISZERO DUP1 ISZERO PUSH2 0x673 JUMPI PUSH1 0x0 DUP1 REVERT JUMPDEST POP GAS CALL ISZERO DUP1 ISZERO PUSH2 0x687 JUMPI RETURNDATASIZE PUSH1 0x0 DUP1 RETURNDATACOPY RETURNDATASIZE PUSH1 0x0 REVERT JUMPDEST POP POP POP POP PUSH1 0x0 PUSH1 0x40 MLOAD DUP1 PUSH2 0x100 ADD PUSH1 0x40 MSTORE DUP1 CALLER PUSH1 0x1 PUSH1 0x1 PUSH1 0xA0 SHL SUB AND DUP2 MSTORE PUSH1 0x20 ADD DUP9 DUP9 DUP1 DUP1 PUSH1 0x20 MUL PUSH1 0x20 ADD PUSH1 0x40 MLOAD SWAP1 DUP2 ADD PUSH1 0x40 MSTORE DUP1 SWAP4 SWAP3 SWAP2 SWAP1 DUP2 DUP2 MSTORE PUSH1 0x20 ADD DUP4 DUP4 PUSH1 0x20 MUL DUP1 DUP3 DUP5 CALLDATACOPY PUSH1 0x0 SWAP3 ADD SWAP2 SWAP1 SWAP2 MSTORE POP POP POP SWAP1 DUP3 MSTORE POP PUSH1 0x20 ADD PUSH2 0x6F0 CALLDATASIZE DUP9 SWAP1 SUB DUP9 ADD DUP9 PUSH2 0x12F2 JUMP JUMPDEST DUP2 MSTORE PUSH2 0x1F4 PUSH1 0x20 DUP3 ADD MSTORE PUSH1 0x1 PUSH1 0x1 PUSH1 0xA0 SHL SUB DUP5 AND PUSH1 0x40 DUP3 ADD MSTORE PUSH1 0x60 ADD PUSH1 0x0 DUP2 MSTORE TIMESTAMP PUSH1 0x20 DUP1 DUP4 ADD SWAP2 SWAP1 SWAP2 MSTORE PUSH1 0x0 PUSH1 0x40 SWAP3 DUP4 ADD DUP2 SWAP1 MSTORE CALLER DUP2 MSTORE PUSH1 0x4 DUP3 MSTORE SWAP2 SWAP1 SWAP2 KECCAK256 DUP3 MLOAD DUP2 SLOAD PUSH1 0x1 PUSH1 0x1 PUSH1 0xA0 SHL SUB NOT AND PUSH1 0x1 PUSH1 0x1 PUSH1 0xA0 SHL SUB SWAP1 SWAP2 AND OR DUP2 SSTORE DUP3 DUP3 ADD MLOAD DUP1 MLOAD SWAP4 SWAP5 POP DUP5 SWAP4 SWAP2 SWAP3 PUSH2 0x76A SWAP3 PUSH1 0x1 DUP6 ADD SWAP3 SWAP1 SWAP2 ADD SWAP1 PUSH2 0xCF1 JUMP JUMPDEST POP PUSH1 0x40 DUP3 DUP2 ADD MLOAD DUP1 MLOAD PUSH1 0x2 DUP1 DUP6 ADD SWAP2 DUP3 SSTORE PUSH1 0x20 DUP4 ADD MLOAD PUSH1 0x3 DUP7 ADD DUP1 SLOAD PUSH1 0x1 PUSH1 0x1 PUSH1 0xA0 SHL SUB SWAP1 SWAP3 AND PUSH1 0x1 PUSH1 0x1 PUSH1 0xA0 SHL SUB NOT DUP4 AND DUP2 OR DUP3 SSTORE SWAP6 DUP6 ADD MLOAD SWAP5 SWAP6 SWAP4 SWAP5 SWAP4 SWAP1 SWAP3 PUSH1 0x1 PUSH1 0x1 PUSH1 0xA8 SHL SUB NOT SWAP1 SWAP3 AND OR SWAP1 PUSH1 0x1 PUSH1 0xA0 SHL SWAP1 DUP5 SWAP1 DUP2 GT ISZERO PUSH2 0x7D0 JUMPI PUSH2 0x7D0 PUSH2 0x1087 JUMP JUMPDEST MUL OR SWAP1 SSTORE POP POP POP PUSH1 0x60 DUP3 ADD MLOAD PUSH1 0x4 DUP3 ADD SSTORE PUSH1 0x80 DUP3 ADD MLOAD PUSH1 0x5 DUP3 ADD DUP1 SLOAD PUSH1 0x1 PUSH1 0x1 PUSH1 0xA0 SHL SUB SWAP1 SWAP3 AND PUSH1 0x1 PUSH1 0x1 PUSH1 0xA0 SHL SUB NOT DUP4 AND DUP2 OR DUP3 SSTORE PUSH1 0xA0 DUP6 ADD MLOAD SWAP3 PUSH1 0x1 PUSH1 0x1 PUSH1 0xA8 SHL SUB NOT AND OR PUSH1 0x1 PUSH1 0xA0 SHL DUP4 PUSH1 0x2 DUP2 GT ISZERO PUSH2 0x82E JUMPI PUSH2 0x82E PUSH2 0x1087 JUMP JUMPDEST MUL OR SWAP1 SSTORE POP PUSH1 0xC0 DUP3 ADD MLOAD PUSH1 0x6 DUP1 DUP4 ADD SWAP2 SWAP1 SWAP2 SSTORE PUSH1 0xE0 SWAP1 SWAP3 ADD MLOAD PUSH1 0x7 SWAP1 SWAP2 ADD SSTORE CALLER PUSH1 0x0 DUP2 DUP2 MSTORE PUSH1 0x5 PUSH1 0x20 SWAP1 DUP2 MSTORE PUSH1 0x40 DUP1 DUP4 KECCAK256 DUP1 SLOAD PUSH1 0x1 PUSH1 0x1 PUSH1 0xA0 SHL SUB DUP10 AND PUSH1 0x1 PUSH1 0x1 PUSH1 0xA0 SHL SUB NOT SWAP2 DUP3 AND DUP2 OR SWAP1 SWAP3 SSTORE SWAP1 DUP5 MSTORE SWAP5 SWAP1 SWAP2 MSTORE DUP2 KECCAK256 DUP1 SLOAD SWAP1 SWAP4 AND SWAP1 SWAP2 OR SWAP1 SWAP2 SSTORE PUSH1 0x3 DUP1 SLOAD SWAP2 PUSH2 0x89E DUP4 PUSH2 0x137F JUMP JUMPDEST SWAP2 SWAP1 POP SSTORE POP CALLER PUSH1 0x1 PUSH1 0x1 PUSH1 0xA0 SHL SUB AND PUSH32 0x386C5306087DA5AA6B1E8AC51EDDDA3163BFFC5543B742A7ED4CCC12A83FA546 DUP4 DUP10 DUP10 TIMESTAMP PUSH1 0x40 MLOAD PUSH2 0x8E2 SWAP5 SWAP4 SWAP3 SWAP2 SWAP1 PUSH2 0x1398 JUMP JUMPDEST PUSH1 0x40 MLOAD DUP1 SWAP2 SUB SWAP1 LOG2 POP POP POP POP POP POP POP JUMP JUMPDEST PUSH1 0x0 SLOAD PUSH1 0x1 PUSH1 0x1 PUSH1 0xA0 SHL SUB AND CALLER EQ PUSH2 0x93A JUMPI PUSH1 0x40 MLOAD PUSH3 0x461BCD PUSH1 0xE5 SHL DUP2 MSTORE PUSH1 0x20 PUSH1 0x4 DUP3 ADD MSTORE PUSH1 0xA PUSH1 0x24 DUP3 ADD MSTORE PUSH10 0x27B7363C9037BBB732B9 PUSH1 0xB1 SHL PUSH1 0x44 DUP3 ADD MSTORE PUSH1 0x64 ADD PUSH2 0x300 JUMP JUMPDEST PUSH1 0x1 DUP1 SLOAD PUSH1 0x1 PUSH1 0x1 PUSH1 0xA0 SHL SUB SWAP4 DUP5 AND PUSH1 0x1 PUSH1 0x1 PUSH1 0xA0 SHL SUB NOT SWAP2 DUP3 AND OR SWAP1 SWAP2 SSTORE PUSH1 0x2 DUP1 SLOAD SWAP3 SWAP1 SWAP4 AND SWAP2 AND OR SWAP1 SSTORE JUMP JUMPDEST PUSH1 0x1 SLOAD PUSH1 0x1 PUSH1 0x1 PUSH1 0xA0 SHL SUB AND CALLER EQ DUP1 PUSH2 0x98B JUMPI POP PUSH1 0x2 SLOAD PUSH1 0x1 PUSH1 0x1 PUSH1 0xA0 SHL SUB AND CALLER EQ JUMPDEST PUSH2 0x9C6 JUMPI PUSH1 0x40 MLOAD PUSH3 0x461BCD PUSH1 0xE5 SHL DUP2 MSTORE PUSH1 0x20 PUSH1 0x4 DUP3 ADD MSTORE PUSH1 0xC PUSH1 0x24 DUP3 ADD MSTORE PUSH12 0x155B985D5D1A1BDC9A5E9959 PUSH1 0xA2 SHL PUSH1 0x44 DUP3 ADD MSTORE PUSH1 0x64 ADD PUSH2 0x300 JUMP JUMPDEST PUSH1 0x1 PUSH1 0x1 PUSH1 0xA0 SHL SUB DUP4 AND PUSH1 0x0 SWAP1 DUP2 MSTORE PUSH1 0x4 PUSH1 0x20 DUP2 SWAP1 MSTORE PUSH1 0x40 DUP3 KECCAK256 SWAP1 DUP2 ADD SLOAD SWAP1 SWAP2 PUSH2 0x9F0 DUP6 DUP4 PUSH2 0x13CE JUMP JUMPDEST SWAP1 POP PUSH1 0x0 DUP2 SLT ISZERO PUSH2 0x9FF JUMPI POP PUSH1 0x0 JUMPDEST PUSH2 0x3E8 DUP2 SGT ISZERO PUSH2 0xA0E JUMPI POP PUSH2 0x3E8 JUMPDEST PUSH1 0x4 DUP4 ADD DUP2 SWAP1 SSTORE PUSH1 0x0 DUP6 SGT ISZERO PUSH2 0xA36 JUMPI PUSH1 0x7 DUP4 ADD DUP1 SLOAD SWAP1 PUSH1 0x0 PUSH2 0xA30 DUP4 PUSH2 0x137F JUMP JUMPDEST SWAP2 SWAP1 POP SSTORE POP JUMPDEST PUSH1 0x4 DUP4 ADD SLOAD PUSH1 0x40 DUP1 MLOAD DUP5 DUP2 MSTORE PUSH1 0x20 DUP2 ADD SWAP3 SWAP1 SWAP3 MSTORE DUP2 ADD DUP6 SWAP1 MSTORE PUSH1 0x1 PUSH1 0x1 PUSH1 0xA0 SHL SUB DUP8 AND SWAP1 PUSH32 0x74D25CC3B3B47B2F164FAA448EB9FFF9F58E50BD977ED460110F7F339EE5A3D8 SWAP1 PUSH1 0x60 ADD PUSH1 0x40 MLOAD DUP1 SWAP2 SUB SWAP1 LOG2 POP POP POP POP POP POP JUMP JUMPDEST PUSH2 0xA97 PUSH2 0xD2C JUMP JUMPDEST PUSH1 0x1 PUSH1 0x1 PUSH1 0xA0 SHL SUB DUP1 DUP4 AND PUSH1 0x0 SWAP1 DUP2 MSTORE PUSH1 0x4 PUSH1 0x20 SWAP1 DUP2 MSTORE PUSH1 0x40 SWAP2 DUP3 SWAP1 KECCAK256 DUP3 MLOAD PUSH2 0x100 DUP2 ADD DUP5 MSTORE DUP2 SLOAD SWAP1 SWAP5 AND DUP5 MSTORE PUSH1 0x1 DUP2 ADD DUP1 SLOAD DUP5 MLOAD DUP2 DUP6 MUL DUP2 ADD DUP6 ADD SWAP1 SWAP6 MSTORE DUP1 DUP6 MSTORE SWAP2 SWAP4 DUP6 DUP5 ADD SWAP4 SWAP1 SWAP3 SWAP1 DUP4 ADD DUP3 DUP3 DUP1 ISZERO PUSH2 0xB11 JUMPI PUSH1 0x20 MUL DUP3 ADD SWAP2 SWAP1 PUSH1 0x0 MSTORE PUSH1 0x20 PUSH1 0x0 KECCAK256 SWAP1 JUMPDEST DUP2 SLOAD DUP2 MSTORE PUSH1 0x20 ADD SWAP1 PUSH1 0x1 ADD SWAP1 DUP1 DUP4 GT PUSH2 0xAFD JUMPI JUMPDEST POP POP POP SWAP2 DUP4 MSTORE POP POP PUSH1 0x40 DUP1 MLOAD PUSH1 0x60 DUP2 ADD DUP3 MSTORE PUSH1 0x2 DUP5 DUP2 ADD DUP1 SLOAD DUP4 MSTORE PUSH1 0x3 DUP7 ADD SLOAD PUSH1 0x1 PUSH1 0x1 PUSH1 0xA0 SHL SUB DUP2 AND PUSH1 0x20 DUP1 DUP7 ADD SWAP2 SWAP1 SWAP2 MSTORE SWAP1 SWAP6 ADD SWAP5 SWAP3 SWAP4 SWAP1 SWAP3 SWAP1 DUP5 ADD SWAP2 PUSH1 0x1 PUSH1 0xA0 SHL SWAP1 SWAP2 DIV PUSH1 0xFF AND SWAP1 DUP2 GT ISZERO PUSH2 0xB6B JUMPI PUSH2 0xB6B PUSH2 0x1087 JUMP JUMPDEST PUSH1 0x2 DUP2 GT ISZERO PUSH2 0xB7C JUMPI PUSH2 0xB7C PUSH2 0x1087 JUMP JUMPDEST SWAP1 MSTORE POP DUP2 MSTORE PUSH1 0x4 DUP3 ADD SLOAD PUSH1 0x20 DUP3 ADD MSTORE PUSH1 0x5 DUP3 ADD SLOAD PUSH1 0x1 PUSH1 0x1 PUSH1 0xA0 SHL SUB DUP2 AND PUSH1 0x40 DUP4 ADD MSTORE PUSH1 0x60 SWAP1 SWAP2 ADD SWAP1 PUSH1 0x1 PUSH1 0xA0 SHL SWAP1 DIV PUSH1 0xFF AND PUSH1 0x2 DUP2 GT ISZERO PUSH2 0xBC0 JUMPI PUSH2 0xBC0 PUSH2 0x1087 JUMP JUMPDEST PUSH1 0x2 DUP2 GT ISZERO PUSH2 0xBD1 JUMPI PUSH2 0xBD1 PUSH2 0x1087 JUMP JUMPDEST DUP2 MSTORE PUSH1 0x6 DUP3 ADD SLOAD PUSH1 0x20 DUP3 ADD MSTORE PUSH1 0x7 SWAP1 SWAP2 ADD SLOAD PUSH1 0x40 SWAP1 SWAP2 ADD MSTORE SWAP3 SWAP2 POP POP JUMP JUMPDEST PUSH1 0x4 PUSH1 0x20 SWAP1 DUP2 MSTORE PUSH1 0x0 SWAP2 DUP3 MSTORE PUSH1 0x40 SWAP2 DUP3 SWAP1 KECCAK256 DUP1 SLOAD DUP4 MLOAD PUSH1 0x60 DUP2 ADD DUP6 MSTORE PUSH1 0x2 DUP1 DUP5 ADD DUP1 SLOAD DUP4 MSTORE PUSH1 0x3 DUP6 ADD SLOAD PUSH1 0x1 PUSH1 0x1 PUSH1 0xA0 SHL SUB DUP1 DUP3 AND SWAP8 DUP6 ADD SWAP8 SWAP1 SWAP8 MSTORE SWAP6 SWAP1 SWAP4 AND SWAP6 SWAP4 SWAP5 SWAP2 SWAP4 DUP5 ADD SWAP2 PUSH1 0x1 PUSH1 0xA0 SHL SWAP1 DIV PUSH1 0xFF AND SWAP1 DUP2 GT ISZERO PUSH2 0xC51 JUMPI PUSH2 0xC51 PUSH2 0x1087 JUMP JUMPDEST PUSH1 0x2 DUP2 GT ISZERO PUSH2 0xC62 JUMPI PUSH2 0xC62 PUSH2 0x1087 JUMP JUMPDEST SWAP1 MSTORE POP PUSH1 0x4 DUP3 ADD SLOAD PUSH1 0x5 DUP4 ADD SLOAD PUSH1 0x6 DUP5 ADD SLOAD PUSH1 0x7 SWAP1 SWAP5 ADD SLOAD SWAP3 SWAP4 SWAP2 SWAP3 PUSH1 0x1 PUSH1 0x1 PUSH1 0xA0 SHL SUB DUP3 AND SWAP3 PUSH1 0x1 PUSH1 0xA0 SHL SWAP1 SWAP3 DIV PUSH1 0xFF AND SWAP2 SWAP1 DUP8 JUMP JUMPDEST DUP3 DUP1 SLOAD DUP3 DUP3 SSTORE SWAP1 PUSH1 0x0 MSTORE PUSH1 0x20 PUSH1 0x0 KECCAK256 SWAP1 DUP2 ADD SWAP3 DUP3 ISZERO PUSH2 0xCD4 JUMPI SWAP2 PUSH1 0x20 MUL DUP3 ADD JUMPDEST DUP3 DUP2 GT ISZERO PUSH2 0xCD4 JUMPI DUP3 CALLDATALOAD DUP3 SSTORE SWAP2 PUSH1 0x20 ADD SWAP2 SWAP1 PUSH1 0x1 ADD SWAP1 PUSH2 0xCB9 JUMP JUMPDEST POP PUSH2 0xCE0 SWAP3 SWAP2 POP PUSH2 0xD8F JUMP JUMPDEST POP SWAP1 JUMP JUMPDEST PUSH2 0xD11 DUP1 PUSH2 0x13F7 DUP4 CODECOPY ADD SWAP1 JUMP JUMPDEST DUP3 DUP1 SLOAD DUP3 DUP3 SSTORE SWAP1 PUSH1 0x0 MSTORE PUSH1 0x20 PUSH1 0x0 KECCAK256 SWAP1 DUP2 ADD SWAP3 DUP3 ISZERO PUSH2 0xCD4 JUMPI SWAP2 PUSH1 0x20 MUL DUP3 ADD JUMPDEST DUP3 DUP2 GT ISZERO PUSH2 0xCD4 JUMPI DUP3 MLOAD DUP3 SSTORE SWAP2 PUSH1 0x20 ADD SWAP2 SWAP1 PUSH1 0x1 ADD SWAP1 PUSH2 0xD11 JUMP JUMPDEST PUSH1 0x40 DUP1 MLOAD PUSH2 0x100 DUP2 ADD DUP3 MSTORE PUSH1 0x0 DUP2 MSTORE PUSH1 0x60 PUSH1 0x20 DUP3 ADD MSTORE SWAP1 DUP2 ADD PUSH2 0xD66 PUSH1 0x40 DUP1 MLOAD PUSH1 0x60 DUP2 ADD DUP3 MSTORE PUSH1 0x0 DUP1 DUP3 MSTORE PUSH1 0x20 DUP3 ADD DUP2 SWAP1 MSTORE SWAP1 SWAP2 DUP3 ADD MSTORE SWAP1 JUMP JUMPDEST DUP2 MSTORE PUSH1 0x0 PUSH1 0x20 DUP3 ADD DUP2 SWAP1 MSTORE PUSH1 0x40 DUP3 ADD DUP2 SWAP1 MSTORE PUSH1 0x60 DUP3 ADD DUP2 SWAP1 MSTORE PUSH1 0x80 DUP3 ADD DUP2 SWAP1 MSTORE PUSH1 0xA0 SWAP1 SWAP2 ADD MSTORE SWAP1 JUMP JUMPDEST JUMPDEST DUP1 DUP3 GT ISZERO PUSH2 0xCE0 JUMPI PUSH1 0x0 DUP2 SSTORE PUSH1 0x1 ADD PUSH2 0xD90 JUMP JUMPDEST PUSH1 0x1 PUSH1 0x1 PUSH1 0xA0 SHL SUB DUP2 AND DUP2 EQ PUSH2 0xDB9 JUMPI PUSH1 0x0 DUP1 REVERT JUMPDEST POP JUMP JUMPDEST PUSH1 0x0 PUSH1 0x20 DUP3 DUP5 SUB SLT ISZERO PUSH2 0xDCE JUMPI PUSH1 0x0 DUP1 REVERT JUMPDEST DUP2 CALLDATALOAD PUSH2 0xDD9 DUP2 PUSH2 0xDA4 JUMP JUMPDEST SWAP4 SWAP3 POP POP POP JUMP JUMPDEST PUSH1 0x0 DUP1 DUP4 PUSH1 0x1F DUP5 ADD SLT PUSH2 0xDF2 JUMPI PUSH1 0x0 DUP1 REVERT JUMPDEST POP DUP2 CALLDATALOAD PUSH8 0xFFFFFFFFFFFFFFFF DUP2 GT ISZERO PUSH2 0xE0A JUMPI PUSH1 0x0 DUP1 REVERT JUMPDEST PUSH1 0x20 DUP4 ADD SWAP2 POP DUP4 PUSH1 0x20 DUP3 DUP6 ADD ADD GT ISZERO PUSH2 0xE22 JUMPI PUSH1 0x0 DUP1 REVERT JUMPDEST SWAP3 POP SWAP3 SWAP1 POP JUMP JUMPDEST PUSH1 0x0 DUP1 PUSH1 0x0 PUSH1 0x40 DUP5 DUP7 SUB SLT ISZERO PUSH2 0xE3E JUMPI PUSH1 0x0 DUP1 REVERT JUMPDEST DUP4 CALLDATALOAD PUSH2 0xE49 DUP2 PUSH2 0xDA4 JUMP JUMPDEST SWAP3 POP PUSH1 0x20 DUP5 ADD CALLDATALOAD PUSH8 0xFFFFFFFFFFFFFFFF DUP2 GT ISZERO PUSH2 0xE65 JUMPI PUSH1 0x0 DUP1 REVERT JUMPDEST PUSH2 0xE71 DUP7 DUP3 DUP8 ADD PUSH2 0xDE0 JUMP JUMPDEST SWAP5 SWAP8 SWAP1 SWAP7 POP SWAP4 SWAP5 POP POP POP POP JUMP JUMPDEST PUSH1 0x0 DUP1 DUP4 PUSH1 0x1F DUP5 ADD SLT PUSH2 0xE90 JUMPI PUSH1 0x0 DUP1 REVERT JUMPDEST POP DUP2 CALLDATALOAD PUSH8 0xFFFFFFFFFFFFFFFF DUP2 GT ISZERO PUSH2 0xEA8 JUMPI PUSH1 0x0 DUP1 REVERT JUMPDEST PUSH1 0x20 DUP4 ADD SWAP2 POP DUP4 PUSH1 0x20 DUP3 PUSH1 0x5 SHL DUP6 ADD ADD GT ISZERO PUSH2 0xE22 JUMPI PUSH1 0x0 DUP1 REVERT JUMPDEST PUSH1 0x0 DUP1 PUSH1 0x0 PUSH1 0x40 DUP5 DUP7 SUB SLT ISZERO PUSH2 0xED8 JUMPI PUSH1 0x0 DUP1 REVERT JUMPDEST DUP4 CALLDATALOAD PUSH2 0xEE3 DUP2 PUSH2 0xDA4 JUMP JUMPDEST SWAP3 POP PUSH1 0x20 DUP5 ADD CALLDATALOAD PUSH8 0xFFFFFFFFFFFFFFFF DUP2 GT ISZERO PUSH2 0xEFF JUMPI PUSH1 0x0 DUP1 REVERT JUMPDEST PUSH2 0xE71 DUP7 DUP3 DUP8 ADD PUSH2 0xE7E JUMP JUMPDEST PUSH1 0x0 PUSH1 0x60 DUP3 DUP5 SUB SLT ISZERO PUSH2 0xF1D JUMPI PUSH1 0x0 DUP1 REVERT JUMPDEST POP SWAP2 SWAP1 POP JUMP JUMPDEST PUSH1 0x0 DUP1 PUSH1 0x80 DUP4 DUP6 SUB SLT ISZERO PUSH2 0xF36 JUMPI PUSH1 0x0 DUP1 REVERT JUMPDEST DUP3 CALLDATALOAD PUSH2 0xF41 DUP2 PUSH2 0xDA4 JUMP JUMPDEST SWAP2 POP PUSH2 0xF50 DUP5 PUSH1 0x20 DUP6 ADD PUSH2 0xF0B JUMP JUMPDEST SWAP1 POP SWAP3 POP SWAP3 SWAP1 POP JUMP JUMPDEST PUSH1 0x0 DUP1 PUSH1 0x0 DUP1 PUSH1 0x0 PUSH1 0xA0 DUP7 DUP9 SUB SLT ISZERO PUSH2 0xF71 JUMPI PUSH1 0x0 DUP1 REVERT JUMPDEST DUP6 CALLDATALOAD PUSH8 0xFFFFFFFFFFFFFFFF DUP1 DUP3 GT ISZERO PUSH2 0xF89 JUMPI PUSH1 0x0 DUP1 REVERT JUMPDEST PUSH2 0xF95 DUP10 DUP4 DUP11 ADD PUSH2 0xE7E JUMP JUMPDEST SWAP1 SWAP8 POP SWAP6 POP DUP6 SWAP2 POP PUSH2 0xFAA DUP10 PUSH1 0x20 DUP11 ADD PUSH2 0xF0B JUMP JUMPDEST SWAP5 POP PUSH1 0x80 DUP9 ADD CALLDATALOAD SWAP2 POP DUP1 DUP3 GT ISZERO PUSH2 0xFC0 JUMPI PUSH1 0x0 DUP1 REVERT JUMPDEST POP PUSH2 0xFCD DUP9 DUP3 DUP10 ADD PUSH2 0xDE0 JUMP JUMPDEST SWAP7 SWAP10 SWAP6 SWAP9 POP SWAP4 SWAP7 POP SWAP3 SWAP5 SWAP4 SWAP3 POP POP POP JUMP JUMPDEST PUSH1 0x0 DUP1 PUSH1 0x40 DUP4 DUP6 SUB SLT ISZERO PUSH2 0xFF1 JUMPI PUSH1 0x0 DUP1 REVERT JUMPDEST DUP3 CALLDATALOAD PUSH2 0xFFC DUP2 PUSH2 0xDA4 JUMP JUMPDEST SWAP2 POP PUSH1 0x20 DUP4 ADD CALLDATALOAD PUSH2 0x100C DUP2 PUSH2 0xDA4 JUMP JUMPDEST DUP1 SWAP2 POP POP SWAP3 POP SWAP3 SWAP1 POP JUMP JUMPDEST PUSH1 0x0 DUP1 PUSH1 0x0 PUSH1 0x60 DUP5 DUP7 SUB SLT ISZERO PUSH2 0x102C JUMPI PUSH1 0x0 DUP1 REVERT JUMPDEST DUP4 CALLDATALOAD PUSH2 0x1037 DUP2 PUSH2 0xDA4 JUMP JUMPDEST SWAP6 PUSH1 0x20 DUP6 ADD CALLDATALOAD SWAP6 POP PUSH1 0x40 SWAP1 SWAP5 ADD CALLDATALOAD SWAP4 SWAP3 POP POP POP JUMP JUMPDEST PUSH1 0x0 DUP2 MLOAD DUP1 DUP5 MSTORE PUSH1 0x20 DUP1 DUP6 ADD SWAP5 POP DUP1 DUP5 ADD PUSH1 0x0 JUMPDEST DUP4 DUP2 LT ISZERO PUSH2 0x107C JUMPI DUP2 MLOAD DUP8 MSTORE SWAP6 DUP3 ADD SWAP6 SWAP1 DUP3 ADD SWAP1 PUSH1 0x1 ADD PUSH2 0x1060 JUMP JUMPDEST POP SWAP5 SWAP6 SWAP5 POP POP POP POP POP JUMP JUMPDEST PUSH4 0x4E487B71 PUSH1 0xE0 SHL PUSH1 0x0 MSTORE PUSH1 0x21 PUSH1 0x4 MSTORE PUSH1 0x24 PUSH1 0x0 REVERT JUMPDEST PUSH1 0x3 DUP2 LT PUSH2 0xDB9 JUMPI PUSH4 0x4E487B71 PUSH1 0xE0 SHL PUSH1 0x0 MSTORE PUSH1 0x21 PUSH1 0x4 MSTORE PUSH1 0x24 PUSH1 0x0 REVERT JUMPDEST DUP1 MLOAD DUP3 MSTORE PUSH1 0x20 DUP1 DUP3 ADD MLOAD PUSH1 0x1 PUSH1 0x1 PUSH1 0xA0 SHL SUB AND SWAP1 DUP4 ADD MSTORE PUSH1 0x40 DUP2 ADD MLOAD PUSH2 0x10E0 DUP2 PUSH2 0x109D JUMP JUMPDEST DUP1 PUSH1 0x40 DUP5 ADD MSTORE POP POP POP JUMP JUMPDEST PUSH2 0x10F4 DUP2 PUSH2 0x109D JUMP JUMPDEST SWAP1 MSTORE JUMP JUMPDEST PUSH1 0x20 DUP1 DUP3 MSTORE DUP3 MLOAD PUSH1 0x1 PUSH1 0x1 PUSH1 0xA0 SHL SUB AND DUP3 DUP3 ADD MSTORE DUP3 ADD MLOAD PUSH2 0x140 PUSH1 0x40 DUP4 ADD DUP2 SWAP1 MSTORE PUSH1 0x0 SWAP2 SWAP1 PUSH2 0x112B PUSH2 0x160 DUP6 ADD DUP4 PUSH2 0x104C JUMP JUMPDEST SWAP2 POP PUSH1 0x40 DUP6 ADD MLOAD PUSH2 0x113F PUSH1 0x60 DUP7 ADD DUP3 PUSH2 0x10BB JUMP JUMPDEST POP PUSH1 0x60 DUP6 ADD MLOAD PUSH1 0xC0 DUP6 ADD MSTORE PUSH1 0x80 DUP6 ADD MLOAD PUSH1 0x1 PUSH1 0x1 PUSH1 0xA0 SHL SUB AND PUSH1 0xE0 DUP6 ADD MSTORE PUSH1 0xA0 DUP6 ADD MLOAD PUSH2 0x1170 PUSH2 0x100 DUP7 ADD DUP3 PUSH2 0x10EB JUMP JUMPDEST POP PUSH1 0xC0 DUP6 ADD MLOAD PUSH2 0x120 DUP6 ADD MSTORE PUSH1 0xE0 SWAP1 SWAP5 ADD MLOAD SWAP4 SWAP1 SWAP3 ADD SWAP3 SWAP1 SWAP3 MSTORE SWAP2 SWAP1 POP JUMP JUMPDEST PUSH1 0x1 PUSH1 0x1 PUSH1 0xA0 SHL SUB DUP9 DUP2 AND DUP3 MSTORE PUSH2 0x120 DUP3 ADD SWAP1 PUSH2 0x11AF PUSH1 0x20 DUP5 ADD DUP11 PUSH2 0x10BB JUMP JUMPDEST PUSH1 0x80 DUP4 ADD DUP9 SWAP1 MSTORE DUP7 AND PUSH1 0xA0 DUP4 ADD MSTORE PUSH2 0x11C6 DUP6 PUSH2 0x109D JUMP JUMPDEST DUP5 PUSH1 0xC0 DUP4 ADD MSTORE DUP4 PUSH1 0xE0 DUP4 ADD MSTORE DUP3 PUSH2 0x100 DUP4 ADD MSTORE SWAP9 SWAP8 POP POP POP POP POP POP POP POP JUMP JUMPDEST PUSH1 0x20 DUP2 MSTORE DUP2 PUSH1 0x20 DUP3 ADD MSTORE DUP2 DUP4 PUSH1 0x40 DUP4 ADD CALLDATACOPY PUSH1 0x0 DUP2 DUP4 ADD PUSH1 0x40 SWAP1 DUP2 ADD SWAP2 SWAP1 SWAP2 MSTORE PUSH1 0x1F SWAP1 SWAP3 ADD PUSH1 0x1F NOT AND ADD ADD SWAP2 SWAP1 POP JUMP JUMPDEST PUSH1 0x20 DUP1 DUP3 MSTORE PUSH1 0xD SWAP1 DUP3 ADD MSTORE PUSH13 0x139BDD081D1A19481859D95B9D PUSH1 0x9A SHL PUSH1 0x40 DUP3 ADD MSTORE PUSH1 0x60 ADD SWAP1 JUMP JUMPDEST DUP2 DUP4 MSTORE PUSH1 0x0 PUSH1 0x1 PUSH1 0x1 PUSH1 0xFB SHL SUB DUP4 GT ISZERO PUSH2 0x1254 JUMPI PUSH1 0x0 DUP1 REVERT JUMPDEST DUP3 PUSH1 0x5 SHL DUP1 DUP4 PUSH1 0x20 DUP8 ADD CALLDATACOPY SWAP4 SWAP1 SWAP4 ADD PUSH1 0x20 ADD SWAP4 SWAP3 POP POP POP JUMP JUMPDEST PUSH1 0x20 DUP2 MSTORE PUSH1 0x0 PUSH2 0x1281 PUSH1 0x20 DUP4 ADD DUP5 DUP7 PUSH2 0x123B JUMP JUMPDEST SWAP5 SWAP4 POP POP POP POP JUMP JUMPDEST PUSH1 0x3 DUP2 LT PUSH2 0xDB9 JUMPI PUSH1 0x0 DUP1 REVERT JUMPDEST DUP2 CALLDATALOAD DUP2 SSTORE PUSH1 0x1 DUP2 ADD PUSH1 0x20 DUP4 ADD CALLDATALOAD PUSH2 0x12AC DUP2 PUSH2 0xDA4 JUMP JUMPDEST DUP2 SLOAD PUSH1 0x40 DUP6 ADD CALLDATALOAD PUSH2 0x12BC DUP2 PUSH2 0x1289 JUMP JUMPDEST PUSH2 0x12C5 DUP2 PUSH2 0x109D JUMP JUMPDEST PUSH1 0xFF PUSH1 0xA0 SHL PUSH1 0xA0 SWAP2 SWAP1 SWAP2 SHL AND PUSH1 0x1 PUSH1 0x1 PUSH1 0xA0 SHL SUB SWAP3 SWAP1 SWAP3 AND PUSH1 0x1 PUSH1 0x1 PUSH1 0xA8 SHL SUB NOT SWAP2 SWAP1 SWAP2 AND OR OR SWAP1 SSTORE POP POP JUMP JUMPDEST PUSH1 0x0 PUSH1 0x60 DUP3 DUP5 SUB SLT ISZERO PUSH2 0x1304 JUMPI PUSH1 0x0 DUP1 REVERT JUMPDEST PUSH1 0x40 MLOAD PUSH1 0x60 DUP2 ADD DUP2 DUP2 LT PUSH8 0xFFFFFFFFFFFFFFFF DUP3 GT OR ISZERO PUSH2 0x1335 JUMPI PUSH4 0x4E487B71 PUSH1 0xE0 SHL PUSH1 0x0 MSTORE PUSH1 0x41 PUSH1 0x4 MSTORE PUSH1 0x24 PUSH1 0x0 REVERT JUMPDEST PUSH1 0x40 MSTORE DUP3 CALLDATALOAD DUP2 MSTORE PUSH1 0x20 DUP4 ADD CALLDATALOAD PUSH2 0x134A DUP2 PUSH2 0xDA4 JUMP JUMPDEST PUSH1 0x20 DUP3 ADD MSTORE PUSH1 0x40 DUP4 ADD CALLDATALOAD PUSH2 0x135D DUP2 PUSH2 0x1289 JUMP JUMPDEST PUSH1 0x40 DUP3 ADD MSTORE SWAP4 SWAP3 POP POP POP JUMP JUMPDEST PUSH4 0x4E487B71 PUSH1 0xE0 SHL PUSH1 0x0 MSTORE PUSH1 0x11 PUSH1 0x4 MSTORE PUSH1 0x24 PUSH1 0x0 REVERT JUMPDEST PUSH1 0x0 PUSH1 0x1 DUP3 ADD PUSH2 0x1391 JUMPI PUSH2 0x1391 PUSH2 0x1369 JUMP JUMPDEST POP PUSH1 0x1 ADD SWAP1 JUMP JUMPDEST PUSH1 0x1 PUSH1 0x1 PUSH1 0xA0 SHL SUB DUP6 AND DUP2 MSTORE PUSH1 0x60 PUSH1 0x20 DUP3 ADD DUP2 SWAP1 MSTORE PUSH1 0x0 SWAP1 PUSH2 0x13BD SWAP1 DUP4 ADD DUP6 DUP8 PUSH2 0x123B JUMP JUMPDEST SWAP1 POP DUP3 PUSH1 0x40 DUP4 ADD MSTORE SWAP6 SWAP5 POP POP POP POP POP JUMP JUMPDEST DUP1 DUP3 ADD DUP3 DUP2 SLT PUSH1 0x0 DUP4 SLT DUP1 ISZERO DUP3 AND DUP3 ISZERO DUP3 AND OR ISZERO PUSH2 0x13EE JUMPI PUSH2 0x13EE PUSH2 0x1369 JUMP JUMPDEST POP POP SWAP3 SWAP2 POP POP JUMP INVALID PUSH1 0x80 PUSH1 0x40 MSTORE CALLVALUE DUP1 ISZERO PUSH2 0x10 JUMPI PUSH1 0x0 DUP1 REVERT JUMPDEST POP PUSH2 0xCF1 DUP1 PUSH2 0x20 PUSH1 0x0 CODECOPY PUSH1 0x0 RETURN INVALID PUSH1 0x80 PUSH1 0x40 MSTORE CALLVALUE DUP1 ISZERO PUSH2 0x10 JUMPI PUSH1 0x0 DUP1 REVERT JUMPDEST POP PUSH1 0x4 CALLDATASIZE LT PUSH2 0xFF JUMPI PUSH1 0x0 CALLDATALOAD PUSH1 0xE0 SHR DUP1 PUSH4 0x7B80889B GT PUSH2 0x97 JUMPI DUP1 PUSH4 0x95858551 GT PUSH2 0x66 JUMPI DUP1 PUSH4 0x95858551 EQ PUSH2 0x253 JUMPI DUP1 PUSH4 0xAB2F0E51 EQ PUSH2 0x266 JUMPI DUP1 PUSH4 0xC0C53B8B EQ PUSH2 0x26F JUMPI DUP1 PUSH4 0xE5A6B10F EQ PUSH2 0x282 JUMPI PUSH1 0x0 DUP1 REVERT JUMPDEST DUP1 PUSH4 0x7B80889B EQ PUSH2 0x1E1 JUMPI DUP1 PUSH4 0x8DA5CB5B EQ PUSH2 0x1F8 JUMPI DUP1 PUSH4 0x8F2900D5 EQ PUSH2 0x20B JUMPI DUP1 PUSH4 0x8F76464D EQ PUSH2 0x21E JUMPI PUSH1 0x0 DUP1 REVERT JUMPDEST DUP1 PUSH4 0x27C4FFE1 GT PUSH2 0xD3 JUMPI DUP1 PUSH4 0x27C4FFE1 EQ PUSH2 0x18D JUMPI DUP1 PUSH4 0x3892CC3E EQ PUSH2 0x1B8 JUMPI DUP1 PUSH4 0x443E46A2 EQ PUSH2 0x1CB JUMPI DUP1 PUSH4 0x50E49764 EQ PUSH2 0x1D9 JUMPI PUSH1 0x0 DUP1 REVERT JUMPDEST DUP1 PUSH3 0xF714CE EQ PUSH2 0x104 JUMPI DUP1 PUSH4 0x312DF52 EQ PUSH2 0x119 JUMPI DUP1 PUSH4 0x12065FE0 EQ PUSH2 0x145 JUMPI DUP1 PUSH4 0x158EF93E EQ PUSH2 0x168 JUMPI JUMPDEST PUSH1 0x0 DUP1 REVERT JUMPDEST PUSH2 0x117 PUSH2 0x112 CALLDATASIZE PUSH1 0x4 PUSH2 0xA2A JUMP JUMPDEST PUSH2 0x295 JUMP JUMPDEST STOP JUMPDEST PUSH1 0x7 SLOAD PUSH2 0x12D SWAP1 PUSH3 0x10000 SWAP1 DIV PUSH2 0xFFFF AND DUP2 JUMP JUMPDEST PUSH1 0x40 MLOAD PUSH2 0xFFFF SWAP1 SWAP2 AND DUP2 MSTORE PUSH1 0x20 ADD JUMPDEST PUSH1 0x40 MLOAD DUP1 SWAP2 SUB SWAP1 RETURN JUMPDEST PUSH2 0x14D PUSH2 0x396 JUMP JUMPDEST PUSH1 0x40 DUP1 MLOAD SWAP4 DUP5 MSTORE PUSH1 0x20 DUP5 ADD SWAP3 SWAP1 SWAP3 MSTORE SWAP1 DUP3 ADD MSTORE PUSH1 0x60 ADD PUSH2 0x13C JUMP JUMPDEST PUSH1 0x7 SLOAD PUSH2 0x17D SWAP1 PUSH5 0x100000000 SWAP1 DIV PUSH1 0xFF AND DUP2 JUMP JUMPDEST PUSH1 0x40 MLOAD SWAP1 ISZERO ISZERO DUP2 MSTORE PUSH1 0x20 ADD PUSH2 0x13C JUMP JUMPDEST PUSH1 0x1 SLOAD PUSH2 0x1A0 SWAP1 PUSH1 0x1 PUSH1 0x1 PUSH1 0xA0 SHL SUB AND DUP2 JUMP JUMPDEST PUSH1 0x40 MLOAD PUSH1 0x1 PUSH1 0x1 PUSH1 0xA0 SHL SUB SWAP1 SWAP2 AND DUP2 MSTORE PUSH1 0x20 ADD PUSH2 0x13C JUMP JUMPDEST PUSH2 0x117 PUSH2 0x1C6 CALLDATASIZE PUSH1 0x4 PUSH2 0xA6A JUMP JUMPDEST PUSH2 0x3BC JUMP JUMPDEST PUSH1 0x7 SLOAD PUSH2 0x12D SWAP1 PUSH2 0xFFFF AND DUP2 JUMP JUMPDEST PUSH2 0x117 PUSH2 0x59C JUMP JUMPDEST PUSH2 0x1EA PUSH1 0x4 SLOAD DUP2 JUMP JUMPDEST PUSH1 0x40 MLOAD SWAP1 DUP2 MSTORE PUSH1 0x20 ADD PUSH2 0x13C JUMP JUMPDEST PUSH1 0x0 SLOAD PUSH2 0x1A0 SWAP1 PUSH1 0x1 PUSH1 0x1 PUSH1 0xA0 SHL SUB AND DUP2 JUMP JUMPDEST PUSH2 0x14D PUSH2 0x219 CALLDATASIZE PUSH1 0x4 PUSH2 0xB01 JUMP JUMPDEST PUSH2 0x6EA JUMP JUMPDEST PUSH2 0x231 PUSH2 0x22C CALLDATASIZE PUSH1 0x4 PUSH2 0xB01 JUMP JUMPDEST PUSH2 0x71D JUMP JUMPDEST PUSH1 0x40 DUP1 MLOAD PUSH1 0x1 PUSH1 0x1 PUSH1 0xA0 SHL SUB SWAP1 SWAP4 AND DUP4 MSTORE PUSH2 0xFFFF SWAP1 SWAP2 AND PUSH1 0x20 DUP4 ADD MSTORE ADD PUSH2 0x13C JUMP JUMPDEST PUSH2 0x117 PUSH2 0x261 CALLDATASIZE PUSH1 0x4 PUSH2 0xB1A JUMP JUMPDEST PUSH2 0x753 JUMP JUMPDEST PUSH2 0x1EA PUSH1 0x3 SLOAD DUP2 JUMP JUMPDEST PUSH2 0x117 PUSH2 0x27D CALLDATASIZE PUSH1 0x4 PUSH2 0xB53 JUMP JUMPDEST PUSH2 0x932 JUMP JUMPDEST PUSH1 0x2 SLOAD PUSH2 0x1A0 SWAP1 PUSH1 0x1 PUSH1 0x1 PUSH1 0xA0 SHL SUB AND DUP2 JUMP JUMPDEST PUSH1 0x0 SLOAD PUSH1 0x1 PUSH1 0x1 PUSH1 0xA0 SHL SUB AND CALLER EQ PUSH2 0x2E0 JUMPI PUSH1 0x40 MLOAD PUSH3 0x461BCD PUSH1 0xE5 SHL DUP2 MSTORE PUSH1 0x20 PUSH1 0x4 DUP3 ADD MSTORE PUSH1 0x9 PUSH1 0x24 DUP3 ADD MSTORE PUSH9 0x2737BA1037BBB732B9 PUSH1 0xB9 SHL PUSH1 0x44 DUP3 ADD MSTORE PUSH1 0x64 ADD JUMPDEST PUSH1 0x40 MLOAD DUP1 SWAP2 SUB SWAP1 REVERT JUMPDEST DUP2 PUSH1 0x3 SLOAD LT ISZERO PUSH2 0x332 JUMPI PUSH1 0x40 MLOAD PUSH3 0x461BCD PUSH1 0xE5 SHL DUP2 MSTORE PUSH1 0x20 PUSH1 0x4 DUP3 ADD MSTORE PUSH1 0x1E PUSH1 0x24 DUP3 ADD MSTORE PUSH32 0x496E73756666696369656E7420617661696C61626C652062616C616E63650000 PUSH1 0x44 DUP3 ADD MSTORE PUSH1 0x64 ADD PUSH2 0x2D7 JUMP JUMPDEST DUP2 PUSH1 0x3 PUSH1 0x0 DUP3 DUP3 SLOAD PUSH2 0x344 SWAP2 SWAP1 PUSH2 0xBA9 JUMP JUMPDEST SWAP1 SWAP2 SSTORE POP POP PUSH1 0x40 DUP1 MLOAD ADDRESS DUP2 MSTORE PUSH1 0x1 PUSH1 0x1 PUSH1 0xA0 SHL SUB DUP4 AND PUSH1 0x20 DUP3 ADD MSTORE SWAP1 DUP2 ADD DUP4 SWAP1 MSTORE PUSH32 0x2717EAD6B9200DD235AAD468C9809EA400FE33AC69B5BFAA6D3E90FC922B6398 SWAP1 PUSH1 0x60 ADD PUSH1 0x40 MLOAD DUP1 SWAP2 SUB SWAP1 LOG1 POP POP JUMP JUMPDEST PUSH1 0x0 DUP1 PUSH1 0x0 PUSH1 0x3 SLOAD PUSH1 0x4 SLOAD PUSH1 0x4 SLOAD PUSH1 0x3 SLOAD PUSH2 0x3B1 SWAP2 SWAP1 PUSH2 0xBC2 JUMP JUMPDEST SWAP3 POP SWAP3 POP SWAP3 POP SWAP1 SWAP2 SWAP3 JUMP JUMPDEST PUSH1 0x0 SLOAD PUSH1 0x1 PUSH1 0x1 PUSH1 0xA0 SHL SUB AND CALLER EQ PUSH2 0x402 JUMPI PUSH1 0x40 MLOAD PUSH3 0x461BCD PUSH1 0xE5 SHL DUP2 MSTORE PUSH1 0x20 PUSH1 0x4 DUP3 ADD MSTORE PUSH1 0x9 PUSH1 0x24 DUP3 ADD MSTORE PUSH9 0x2737BA1037BBB732B9 PUSH1 0xB9 SHL PUSH1 0x44 DUP3 ADD MSTORE PUSH1 0x64 ADD PUSH2 0x2D7 JUMP JUMPDEST PUSH1 0x0 DUP1 JUMPDEST DUP5 DUP2 LT ISZERO PUSH2 0x45A JUMPI DUP6 DUP6 DUP3 DUP2 DUP2 LT PUSH2 0x420 JUMPI PUSH2 0x420 PUSH2 0xBD5 JUMP JUMPDEST SWAP1 POP PUSH1 0x40 MUL ADD PUSH1 0x20 ADD PUSH1 0x20 DUP2 ADD SWAP1 PUSH2 0x438 SWAP2 SWAP1 PUSH2 0xBEB JUMP JUMPDEST PUSH2 0x446 SWAP1 PUSH2 0xFFFF AND DUP4 PUSH2 0xBC2 JUMP JUMPDEST SWAP2 POP DUP1 PUSH2 0x452 DUP2 PUSH2 0xC0F JUMP JUMPDEST SWAP2 POP POP PUSH2 0x406 JUMP JUMPDEST POP DUP2 PUSH2 0xFFFF AND DUP4 PUSH2 0xFFFF AND DUP3 PUSH2 0x470 SWAP2 SWAP1 PUSH2 0xBC2 JUMP JUMPDEST PUSH2 0x47A SWAP2 SWAP1 PUSH2 0xBC2 JUMP JUMPDEST PUSH2 0x2710 EQ PUSH2 0x4C2 JUMPI PUSH1 0x40 MLOAD PUSH3 0x461BCD PUSH1 0xE5 SHL DUP2 MSTORE PUSH1 0x20 PUSH1 0x4 DUP3 ADD MSTORE PUSH1 0x15 PUSH1 0x24 DUP3 ADD MSTORE PUSH21 0x4D7573742073756D20746F20313030303020425053 PUSH1 0x58 SHL PUSH1 0x44 DUP3 ADD MSTORE PUSH1 0x64 ADD PUSH2 0x2D7 JUMP JUMPDEST PUSH2 0x4CE PUSH1 0x6 PUSH1 0x0 PUSH2 0x9D1 JUMP JUMPDEST PUSH1 0x0 JUMPDEST DUP5 DUP2 LT ISZERO PUSH2 0x52E JUMPI PUSH1 0x6 DUP7 DUP7 DUP4 DUP2 DUP2 LT PUSH2 0x4ED JUMPI PUSH2 0x4ED PUSH2 0xBD5 JUMP JUMPDEST DUP4 SLOAD PUSH1 0x1 DUP2 ADD DUP6 SSTORE PUSH1 0x0 SWAP5 DUP6 MSTORE PUSH1 0x20 SWAP1 SWAP5 KECCAK256 PUSH1 0x40 SWAP1 SWAP2 MUL SWAP3 SWAP1 SWAP3 ADD SWAP3 SWAP2 SWAP1 SWAP2 ADD SWAP1 POP PUSH2 0x519 DUP3 DUP3 PUSH2 0xC28 JUMP JUMPDEST POP POP DUP1 DUP1 PUSH2 0x526 SWAP1 PUSH2 0xC0F JUMP JUMPDEST SWAP2 POP POP PUSH2 0x4D1 JUMP JUMPDEST POP PUSH1 0x7 DUP1 SLOAD PUSH2 0xFFFF DUP6 DUP2 AND PUSH4 0xFFFFFFFF NOT SWAP1 SWAP3 AND DUP3 OR PUSH3 0x10000 SWAP2 DUP7 AND SWAP2 DUP3 MUL OR SWAP1 SWAP3 SSTORE PUSH1 0x40 DUP1 MLOAD ADDRESS DUP2 MSTORE PUSH1 0x20 DUP2 ADD SWAP3 SWAP1 SWAP3 MSTORE DUP2 ADD SWAP2 SWAP1 SWAP2 MSTORE PUSH32 0x4C25F8D3AB0B0927C6B76EB8C03CAA690E0F6269EAEE15B89EA67C71121ACAF9 SWAP1 PUSH1 0x60 ADD JUMPDEST PUSH1 0x40 MLOAD DUP1 SWAP2 SUB SWAP1 LOG1 POP POP POP POP POP JUMP JUMPDEST PUSH1 0x0 DUP1 JUMPDEST PUSH1 0x5 SLOAD DUP2 LT ISZERO PUSH2 0x672 JUMPI PUSH1 0x0 PUSH1 0x5 DUP3 DUP2 SLOAD DUP2 LT PUSH2 0x5BF JUMPI PUSH2 0x5BF PUSH2 0xBD5 JUMP JUMPDEST SWAP1 PUSH1 0x0 MSTORE PUSH1 0x20 PUSH1 0x0 KECCAK256 SWAP1 PUSH1 0x3 MUL ADD PUSH1 0x0 ADD SLOAD GT DUP1 ISZERO PUSH2 0x602 JUMPI POP PUSH1 0x5 DUP2 DUP2 SLOAD DUP2 LT PUSH2 0x5EC JUMPI PUSH2 0x5EC PUSH2 0xBD5 JUMP JUMPDEST SWAP1 PUSH1 0x0 MSTORE PUSH1 0x20 PUSH1 0x0 KECCAK256 SWAP1 PUSH1 0x3 MUL ADD PUSH1 0x1 ADD SLOAD NUMBER LT ISZERO JUMPDEST ISZERO PUSH2 0x660 JUMPI PUSH1 0x5 DUP2 DUP2 SLOAD DUP2 LT PUSH2 0x61A JUMPI PUSH2 0x61A PUSH2 0xBD5 JUMP JUMPDEST SWAP1 PUSH1 0x0 MSTORE PUSH1 0x20 PUSH1 0x0 KECCAK256 SWAP1 PUSH1 0x3 MUL ADD PUSH1 0x0 ADD SLOAD DUP3 PUSH2 0x637 SWAP2 SWAP1 PUSH2 0xBC2 JUMP JUMPDEST SWAP2 POP PUSH1 0x0 PUSH1 0x5 DUP3 DUP2 SLOAD DUP2 LT PUSH2 0x64E JUMPI PUSH2 0x64E PUSH2 0xBD5 JUMP JUMPDEST PUSH1 0x0 SWAP2 DUP3 MSTORE PUSH1 0x20 SWAP1 SWAP2 KECCAK256 PUSH1 0x3 SWAP1 SWAP2 MUL ADD SSTORE JUMPDEST DUP1 PUSH2 0x66A DUP2 PUSH2 0xC0F JUMP JUMPDEST SWAP2 POP POP PUSH2 0x5A0 JUMP JUMPDEST POP PUSH1 0x0 DUP2 GT PUSH2 0x6B7 JUMPI PUSH1 0x40 MLOAD PUSH3 0x461BCD PUSH1 0xE5 SHL DUP2 MSTORE PUSH1 0x20 PUSH1 0x4 DUP3 ADD MSTORE PUSH1 0x11 PUSH1 0x24 DUP3 ADD MSTORE PUSH17 0x4E6F20756E6C6F636B65642066756E6473 PUSH1 0x78 SHL PUSH1 0x44 DUP3 ADD MSTORE PUSH1 0x64 ADD PUSH2 0x2D7 JUMP JUMPDEST DUP1 PUSH1 0x4 PUSH1 0x0 DUP3 DUP3 SLOAD PUSH2 0x6C9 SWAP2 SWAP1 PUSH2 0xBA9 JUMP JUMPDEST SWAP3 POP POP DUP2 SWAP1 SSTORE POP DUP1 PUSH1 0x3 PUSH1 0x0 DUP3 DUP3 SLOAD PUSH2 0x6E2 SWAP2 SWAP1 PUSH2 0xBC2 JUMP JUMPDEST SWAP1 SWAP2 SSTORE POP POP POP JUMP JUMPDEST PUSH1 0x5 DUP2 DUP2 SLOAD DUP2 LT PUSH2 0x6FA JUMPI PUSH1 0x0 DUP1 REVERT JUMPDEST PUSH1 0x0 SWAP2 DUP3 MSTORE PUSH1 0x20 SWAP1 SWAP2 KECCAK256 PUSH1 0x3 SWAP1 SWAP2 MUL ADD DUP1 SLOAD PUSH1 0x1 DUP3 ADD SLOAD PUSH1 0x2 SWAP1 SWAP3 ADD SLOAD SWAP1 SWAP3 POP DUP4 JUMP JUMPDEST PUSH1 0x6 DUP2 DUP2 SLOAD DUP2 LT PUSH2 0x72D JUMPI PUSH1 0x0 DUP1 REVERT JUMPDEST PUSH1 0x0 SWAP2 DUP3 MSTORE PUSH1 0x20 SWAP1 SWAP2 KECCAK256 ADD SLOAD PUSH1 0x1 PUSH1 0x1 PUSH1 0xA0 SHL SUB DUP2 AND SWAP2 POP PUSH1 0x1 PUSH1 0xA0 SHL SWAP1 DIV PUSH2 0xFFFF AND DUP3 JUMP JUMPDEST PUSH1 0x1 SLOAD PUSH1 0x1 PUSH1 0x1 PUSH1 0xA0 SHL SUB AND CALLER EQ PUSH2 0x79E JUMPI PUSH1 0x40 MLOAD PUSH3 0x461BCD PUSH1 0xE5 SHL DUP2 MSTORE PUSH1 0x20 PUSH1 0x4 DUP3 ADD MSTORE PUSH1 0xE PUSH1 0x24 DUP3 ADD MSTORE PUSH14 0x4E6F74205461736B457363726F77 PUSH1 0x90 SHL PUSH1 0x44 DUP3 ADD MSTORE PUSH1 0x64 ADD PUSH2 0x2D7 JUMP JUMPDEST PUSH1 0x7 SLOAD PUSH1 0x0 SWAP1 PUSH2 0x2710 SWAP1 PUSH2 0x7B6 SWAP1 PUSH2 0xFFFF AND DUP7 PUSH2 0xC82 JUMP JUMPDEST PUSH2 0x7C0 SWAP2 SWAP1 PUSH2 0xC99 JUMP JUMPDEST PUSH1 0x7 SLOAD SWAP1 SWAP2 POP PUSH1 0x0 SWAP1 PUSH2 0x2710 SWAP1 PUSH2 0x7E1 SWAP1 PUSH3 0x10000 SWAP1 DIV PUSH2 0xFFFF AND DUP8 PUSH2 0xC82 JUMP JUMPDEST PUSH2 0x7EB SWAP2 SWAP1 PUSH2 0xC99 JUMP JUMPDEST SWAP1 POP DUP2 ISZERO PUSH2 0x869 JUMPI DUP2 PUSH1 0x4 PUSH1 0x0 DUP3 DUP3 SLOAD PUSH2 0x805 SWAP2 SWAP1 PUSH2 0xBC2 JUMP JUMPDEST SWAP1 SWAP2 SSTORE POP POP PUSH1 0x40 DUP1 MLOAD PUSH1 0x60 DUP2 ADD SWAP1 SWAP2 MSTORE DUP3 DUP2 MSTORE PUSH1 0x5 SWAP1 PUSH1 0x20 DUP2 ADD PUSH2 0x82C NUMBER PUSH3 0x34BC0 PUSH2 0xBC2 JUMP JUMPDEST DUP2 MSTORE PUSH1 0x20 SWAP1 DUP2 ADD DUP8 SWAP1 MSTORE DUP3 SLOAD PUSH1 0x1 DUP2 DUP2 ADD DUP6 SSTORE PUSH1 0x0 SWAP5 DUP6 MSTORE SWAP4 DUP3 SWAP1 KECCAK256 DUP4 MLOAD PUSH1 0x3 SWAP1 SWAP3 MUL ADD SWAP1 DUP2 SSTORE SWAP1 DUP3 ADD MLOAD SWAP3 DUP2 ADD SWAP3 SWAP1 SWAP3 SSTORE PUSH1 0x40 ADD MLOAD PUSH1 0x2 SWAP1 SWAP2 ADD SSTORE JUMPDEST DUP1 ISZERO PUSH2 0x887 JUMPI DUP1 PUSH1 0x3 PUSH1 0x0 DUP3 DUP3 SLOAD PUSH2 0x881 SWAP2 SWAP1 PUSH2 0xBC2 JUMP JUMPDEST SWAP1 SWAP2 SSTORE POP POP JUMPDEST PUSH1 0x0 JUMPDEST PUSH1 0x6 SLOAD DUP2 LT ISZERO PUSH2 0x8EC JUMPI PUSH1 0x0 PUSH2 0x2710 PUSH1 0x6 DUP4 DUP2 SLOAD DUP2 LT PUSH2 0x8AC JUMPI PUSH2 0x8AC PUSH2 0xBD5 JUMP JUMPDEST PUSH1 0x0 SWAP2 DUP3 MSTORE PUSH1 0x20 SWAP1 SWAP2 KECCAK256 ADD SLOAD PUSH2 0x8CD SWAP1 PUSH1 0x1 PUSH1 0xA0 SHL SWAP1 DIV PUSH2 0xFFFF AND DUP10 PUSH2 0xC82 JUMP JUMPDEST PUSH2 0x8D7 SWAP2 SWAP1 PUSH2 0xC99 JUMP JUMPDEST POP DUP2 SWAP1 POP PUSH2 0x8E4 DUP2 PUSH2 0xC0F JUMP JUMPDEST SWAP2 POP POP PUSH2 0x88A JUMP JUMPDEST POP PUSH1 0x40 DUP1 MLOAD DUP6 DUP2 MSTORE PUSH1 0x20 DUP2 ADD DUP8 SWAP1 MSTORE SWAP1 DUP2 ADD DUP4 SWAP1 MSTORE PUSH1 0x60 DUP2 ADD DUP3 SWAP1 MSTORE PUSH32 0xBCFA5B81E5DFEB9CCA18FF55BEEEFE4F9F70BCC7C4D07A1F0BB68B51B9BA9F22 SWAP1 PUSH1 0x80 ADD PUSH2 0x58D JUMP JUMPDEST PUSH1 0x7 SLOAD PUSH5 0x100000000 SWAP1 DIV PUSH1 0xFF AND ISZERO PUSH2 0x97C JUMPI PUSH1 0x40 MLOAD PUSH3 0x461BCD PUSH1 0xE5 SHL DUP2 MSTORE PUSH1 0x20 PUSH1 0x4 DUP3 ADD MSTORE PUSH1 0xC PUSH1 0x24 DUP3 ADD MSTORE PUSH12 0x105B1C9958591E481A5B9A5D PUSH1 0xA2 SHL PUSH1 0x44 DUP3 ADD MSTORE PUSH1 0x64 ADD PUSH2 0x2D7 JUMP JUMPDEST PUSH1 0x0 DUP1 SLOAD PUSH1 0x1 PUSH1 0x1 PUSH1 0xA0 SHL SUB NOT SWAP1 DUP2 AND PUSH1 0x1 PUSH1 0x1 PUSH1 0xA0 SHL SUB SWAP6 DUP7 AND OR SWAP1 SWAP2 SSTORE PUSH1 0x1 DUP1 SLOAD DUP3 AND SWAP4 DUP6 AND SWAP4 SWAP1 SWAP4 OR SWAP1 SWAP3 SSTORE PUSH1 0x2 DUP1 SLOAD SWAP1 SWAP3 AND SWAP3 AND SWAP2 SWAP1 SWAP2 OR SWAP1 SSTORE PUSH1 0x7 DUP1 SLOAD PUSH5 0xFFFFFFFFFF NOT AND PUSH5 0x1138807D0 OR SWAP1 SSTORE JUMP JUMPDEST POP DUP1 SLOAD PUSH1 0x0 DUP3 SSTORE SWAP1 PUSH1 0x0 MSTORE PUSH1 0x20 PUSH1 0x0 KECCAK256 SWAP1 DUP2 ADD SWAP1 PUSH2 0x9EF SWAP2 SWAP1 PUSH2 0x9F2 JUMP JUMPDEST POP JUMP JUMPDEST JUMPDEST DUP1 DUP3 GT ISZERO PUSH2 0xA11 JUMPI DUP1 SLOAD PUSH1 0x1 PUSH1 0x1 PUSH1 0xB0 SHL SUB NOT AND DUP2 SSTORE PUSH1 0x1 ADD PUSH2 0x9F3 JUMP JUMPDEST POP SWAP1 JUMP JUMPDEST PUSH1 0x1 PUSH1 0x1 PUSH1 0xA0 SHL SUB DUP2 AND DUP2 EQ PUSH2 0x9EF JUMPI PUSH1 0x0 DUP1 REVERT JUMPDEST PUSH1 0x0 DUP1 PUSH1 0x40 DUP4 DUP6 SUB SLT ISZERO PUSH2 0xA3D JUMPI PUSH1 0x0 DUP1 REVERT JUMPDEST DUP3 CALLDATALOAD SWAP2 POP PUSH1 0x20 DUP4 ADD CALLDATALOAD PUSH2 0xA4F DUP2 PUSH2 0xA15 JUMP JUMPDEST DUP1 SWAP2 POP POP SWAP3 POP SWAP3 SWAP1 POP JUMP JUMPDEST PUSH2 0xFFFF DUP2 AND DUP2 EQ PUSH2 0x9EF JUMPI PUSH1 0x0 DUP1 REVERT JUMPDEST PUSH1 0x0 DUP1 PUSH1 0x0 DUP1 PUSH1 0x60 DUP6 DUP8 SUB SLT ISZERO PUSH2 0xA80 JUMPI PUSH1 0x0 DUP1 REVERT JUMPDEST DUP5 CALLDATALOAD PUSH8 0xFFFFFFFFFFFFFFFF DUP1 DUP3 GT ISZERO PUSH2 0xA98 JUMPI PUSH1 0x0 DUP1 REVERT JUMPDEST DUP2 DUP8 ADD SWAP2 POP DUP8 PUSH1 0x1F DUP4 ADD SLT PUSH2 0xAAC JUMPI PUSH1 0x0 DUP1 REVERT JUMPDEST DUP2 CALLDATALOAD DUP2 DUP2 GT ISZERO PUSH2 0xABB JUMPI PUSH1 0x0 DUP1 REVERT JUMPDEST DUP9 PUSH1 0x20 DUP3 PUSH1 0x6 SHL DUP6 ADD ADD GT ISZERO PUSH2 0xAD0 JUMPI PUSH1 0x0 DUP1 REVERT JUMPDEST PUSH1 0x20 SWAP3 DUP4 ADD SWAP7 POP SWAP5 POP POP DUP6 ADD CALLDATALOAD PUSH2 0xAE6 DUP2 PUSH2 0xA5A JUMP JUMPDEST SWAP2 POP PUSH1 0x40 DUP6 ADD CALLDATALOAD PUSH2 0xAF6 DUP2 PUSH2 0xA5A JUMP JUMPDEST SWAP4 SWAP7 SWAP3 SWAP6 POP SWAP1 SWAP4 POP POP JUMP JUMPDEST PUSH1 0x0 PUSH1 0x20 DUP3 DUP5 SUB SLT ISZERO PUSH2 0xB13 JUMPI PUSH1 0x0 DUP1 REVERT JUMPDEST POP CALLDATALOAD SWAP2 SWAP1 POP JUMP JUMPDEST PUSH1 0x0 DUP1 PUSH1 0x0 PUSH1 0x60 DUP5 DUP7 SUB SLT ISZERO PUSH2 0xB2F JUMPI PUSH1 0x0 DUP1 REVERT JUMPDEST DUP4 CALLDATALOAD SWAP3 POP PUSH1 0x20 DUP5 ADD CALLDATALOAD SWAP2 POP PUSH1 0x40 DUP5 ADD CALLDATALOAD PUSH2 0xB48 DUP2 PUSH2 0xA15 JUMP JUMPDEST DUP1 SWAP2 POP POP SWAP3 POP SWAP3 POP SWAP3 JUMP JUMPDEST PUSH1 0x0 DUP1 PUSH1 0x0 PUSH1 0x60 DUP5 DUP7 SUB SLT ISZERO PUSH2 0xB68 JUMPI PUSH1 0x0 DUP1 REVERT JUMPDEST DUP4 CALLDATALOAD PUSH2 0xB73 DUP2 PUSH2 0xA15 JUMP JUMPDEST SWAP3 POP PUSH1 0x20 DUP5 ADD CALLDATALOAD PUSH2 0xB83 DUP2 PUSH2 0xA15 JUMP JUMPDEST SWAP2 POP PUSH1 0x40 DUP5 ADD CALLDATALOAD PUSH2 0xB48 DUP2 PUSH2 0xA15 JUMP JUMPDEST PUSH4 0x4E487B71 PUSH1 0xE0 SHL PUSH1 0x0 MSTORE PUSH1 0x11 PUSH1 0x4 MSTORE PUSH1 0x24 PUSH1 0x0 REVERT JUMPDEST DUP2 DUP2 SUB DUP2 DUP2 GT ISZERO PUSH2 0xBBC JUMPI PUSH2 0xBBC PUSH2 0xB93 JUMP JUMPDEST SWAP3 SWAP2 POP POP JUMP JUMPDEST DUP1 DUP3 ADD DUP1 DUP3 GT ISZERO PUSH2 0xBBC JUMPI PUSH2 0xBBC PUSH2 0xB93 JUMP JUMPDEST PUSH4 0x4E487B71 PUSH1 0xE0 SHL PUSH1 0x0 MSTORE PUSH1 0x32 PUSH1 0x4 MSTORE PUSH1 0x24 PUSH1 0x0 REVERT JUMPDEST PUSH1 0x0 PUSH1 0x20 DUP3 DUP5 SUB SLT ISZERO PUSH2 0xBFD JUMPI PUSH1 0x0 DUP1 REVERT JUMPDEST DUP2 CALLDATALOAD PUSH2 0xC08 DUP2 PUSH2 0xA5A JUMP JUMPDEST SWAP4 SWAP3 POP POP POP JUMP JUMPDEST PUSH1 0x0 PUSH1 0x1 DUP3 ADD PUSH2 0xC21 JUMPI PUSH2 0xC21 PUSH2 0xB93 JUMP JUMPDEST POP PUSH1 0x1 ADD SWAP1 JUMP JUMPDEST DUP2 CALLDATALOAD PUSH2 0xC33 DUP2 PUSH2 0xA15 JUMP JUMPDEST DUP2 SLOAD PUSH1 0x1 PUSH1 0x1 PUSH1 0xA0 SHL SUB NOT DUP2 AND PUSH1 0x1 PUSH1 0x1 PUSH1 0xA0 SHL SUB SWAP3 SWAP1 SWAP3 AND SWAP2 DUP3 OR DUP4 SSTORE PUSH1 0x20 DUP5 ADD CALLDATALOAD PUSH2 0xC5F DUP2 PUSH2 0xA5A JUMP JUMPDEST PUSH1 0x1 PUSH1 0x1 PUSH1 0xB0 SHL SUB NOT SWAP2 SWAP1 SWAP2 AND SWAP1 SWAP2 OR PUSH1 0xA0 SWAP2 SWAP1 SWAP2 SHL PUSH2 0xFFFF PUSH1 0xA0 SHL AND OR SWAP1 SSTORE POP JUMP JUMPDEST DUP1 DUP3 MUL DUP2 ISZERO DUP3 DUP3 DIV DUP5 EQ OR PUSH2 0xBBC JUMPI PUSH2 0xBBC PUSH2 0xB93 JUMP JUMPDEST PUSH1 0x0 DUP3 PUSH2 0xCB6 JUMPI PUSH4 0x4E487B71 PUSH1 0xE0 SHL PUSH1 0x0 MSTORE PUSH1 0x12 PUSH1 0x4 MSTORE PUSH1 0x24 PUSH1 0x0 REVERT JUMPDEST POP DIV SWAP1 JUMP INVALID LOG2 PUSH5 0x6970667358 0x22 SLT KECCAK256 0xC8 0xCF PUSH24 0x2B7757781D2936873B8F079B0161FFB95D7D6749F0DDF870 0x4C 0xC4 ISZERO 0xA7 DUP16 PUSH5 0x736F6C6343 STOP ADDMOD EQ STOP CALLER LOG2 PUSH5 0x6970667358 0x22 SLT KECCAK256 0x27 SWAP12 INVALID PUSH19 0xFDD3366DCAD7E73C295C4D777F9E64A690A227 CALLDATALOAD 0xDB SHL MSTORE8 SSTORE SGT 0xAD 0xC7 0xD9 PUSH5 0x736F6C6343 STOP ADDMOD EQ STOP CALLER "},"methodIdentifiers":{"agentCount()":"b7dc1284","agentVaults(address)":"dcb55c56","agents(address)":"fd66091e","deregister(address)":"84ac33ec","disputeResolver()":"f5a3f4af","getAgent(address)":"fb3551ff","getVaultAddress(address)":"ef88c31e","owner()":"8da5cb5b","register(bytes32[],(uint256,address,uint8),bytes)":"ef9a9582","setRoles(address,address)":"f6072a10","suspend(address,string)":"57a27127","taskEscrow()":"27c4ffe1","updateCapabilities(address,bytes32[])":"ac68dc39","updatePricing(address,(uint256,address,uint8))":"df5e4b16","updateReputation(address,int256,bytes32)":"f936a604","vaultToAgent(address)":"299621af"}}}}}