{
  "_format": "hh-sol-artifact-1",
  "contractName": "AgentRegistry",
  "sourceName": "contracts/AgentRegistryAndVault.sol",
  "abi": [
    {
      "inputs": [],
      "stateMutability": "nonpayable",
      "type": "constructor"
    },
    {
      "anonymous": false,
      "inputs": [
        {
          "indexed": true,
          "internalType": "address",
          "name": "agentId",
          "type": "address"
        }
      ],
      "name": "AgentDeregistered",
      "type": "event"
    },
    {
      "anonymous": false,
      "inputs": [
        {
          "indexed": true,
          "internalType": "address",
          "name": "agentId",
          "type": "address"
        },
        {
          "indexed": false,
          "internalType": "address",
          "name": "vaultAddress",
          "type": "address"
        },
        {
          "indexed": false,
          "internalType": "bytes32[]",
          "name": "capabilities",
          "type": "bytes32[]"
        },
        {
          "indexed": false,
          "internalType": "uint256",
          "name": "timestamp",
          "type": "uint256"
        }
      ],
      "name": "AgentRegistered",
      "type": "event"
    },
    {
      "anonymous": false,
      "inputs": [
        {
          "indexed": true,
          "internalType": "address",
          "name": "agentId",
          "type": "address"
        },
        {
          "indexed": false,
          "internalType": "string",
          "name": "reason",
          "type": "string"
        }
      ],
      "name": "AgentSuspended",
      "type": "event"
    },
    {
      "anonymous": false,
      "inputs": [
        {
          "indexed": true,
          "internalType": "address",
          "name": "agentId",
          "type": "address"
        },
        {
          "indexed": false,
          "internalType": "bytes32[]",
          "name": "capabilities",
          "type": "bytes32[]"
        }
      ],
      "name": "CapabilitiesUpdated",
      "type": "event"
    },
    {
      "anonymous": false,
      "inputs": [
        {
          "indexed": true,
          "internalType": "address",
          "name": "agentId",
          "type": "address"
        },
        {
          "indexed": false,
          "internalType": "uint256",
          "name": "previousScore",
          "type": "uint256"
        },
        {
          "indexed": false,
          "internalType": "uint256",
          "name": "newScore",
          "type": "uint256"
        },
        {
          "indexed": false,
          "internalType": "bytes32",
          "name": "trigger",
          "type": "bytes32"
        }
      ],
      "name": "ReputationUpdated",
      "type": "event"
    },
    {
      "inputs": [],
      "name": "agentCount",
      "outputs": [
        {
          "internalType": "uint256",
          "name": "",
          "type": "uint256"
        }
      ],
      "stateMutability": "view",
      "type": "function"
    },
    {
      "inputs": [
        {
          "internalType": "address",
          "name": "",
          "type": "address"
        }
      ],
      "name": "agentVaults",
      "outputs": [
        {
          "internalType": "address",
          "name": "",
          "type": "address"
        }
      ],
      "stateMutability": "view",
      "type": "function"
    },
    {
      "inputs": [
        {
          "internalType": "address",
          "name": "",
          "type": "address"
        }
      ],
      "name": "agents",
      "outputs": [
        {
          "internalType": "address",
          "name": "agentId",
          "type": "address"
        },
        {
          "components": [
            {
              "internalType": "uint256",
              "name": "basePrice",
              "type": "uint256"
            },
            {
              "internalType": "address",
              "name": "currency",
              "type": "address"
            },
            {
              "internalType": "enum IAgentRegistry.PricingType",
              "name": "pricingType",
              "type": "uint8"
            }
          ],
          "internalType": "struct IAgentRegistry.PricingModel",
          "name": "pricingModel",
          "type": "tuple"
        },
        {
          "internalType": "uint256",
          "name": "reputationScore",
          "type": "uint256"
        },
        {
          "internalType": "address",
          "name": "vaultAddress",
          "type": "address"
        },
        {
          "internalType": "enum IAgentRegistry.AgentStatus",
          "name": "status",
          "type": "uint8"
        },
        {
          "internalType": "uint256",
          "name": "registeredAt",
          "type": "uint256"
        },
        {
          "internalType": "uint256",
          "name": "totalTasksCompleted",
          "type": "uint256"
        }
      ],
      "stateMutability": "view",
      "type": "function"
    },
    {
      "inputs": [
        {
          "internalType": "address",
          "name": "agentId",
          "type": "address"
        }
      ],
      "name": "deregister",
      "outputs": [],
      "stateMutability": "nonpayable",
      "type": "function"
    },
    {
      "inputs": [],
      "name": "disputeResolver",
      "outputs": [
        {
          "internalType": "address",
          "name": "",
          "type": "address"
        }
      ],
      "stateMutability": "view",
      "type": "function"
    },
    {
      "inputs": [
        {
          "internalType": "address",
          "name": "agentId",
          "type": "address"
        }
      ],
      "name": "getAgent",
      "outputs": [
        {
          "components": [
            {
              "internalType": "address",
              "name": "agentId",
              "type": "address"
            },
            {
              "internalType": "bytes32[]",
              "name": "capabilities",
              "type": "bytes32[]"
            },
            {
              "components": [
                {
                  "internalType": "uint256",
                  "name": "basePrice",
                  "type": "uint256"
                },
                {
                  "internalType": "address",
                  "name": "currency",
                  "type": "address"
                },
                {
                  "internalType": "enum IAgentRegistry.PricingType",
                  "name": "pricingType",
                  "type": "uint8"
                }
              ],
              "internalType": "struct IAgentRegistry.PricingModel",
              "name": "pricingModel",
              "type": "tuple"
            },
            {
              "internalType": "uint256",
              "name": "reputationScore",
              "type": "uint256"
            },
            {
              "internalType": "address",
              "name": "vaultAddress",
              "type": "address"
            },
            {
              "internalType": "enum IAgentRegistry.AgentStatus",
              "name": "status",
              "type": "uint8"
            },
            {
              "internalType": "uint256",
              "name": "registeredAt",
              "type": "uint256"
            },
            {
              "internalType": "uint256",
              "name": "totalTasksCompleted",
              "type": "uint256"
            }
          ],
          "internalType": "struct IAgentRegistry.AgentInfo",
          "name": "",
          "type": "tuple"
        }
      ],
      "stateMutability": "view",
      "type": "function"
    },
    {
      "inputs": [
        {
          "internalType": "address",
          "name": "agentId",
          "type": "address"
        }
      ],
      "name": "getVaultAddress",
      "outputs": [
        {
          "internalType": "address",
          "name": "",
          "type": "address"
        }
      ],
      "stateMutability": "view",
      "type": "function"
    },
    {
      "inputs": [],
      "name": "owner",
      "outputs": [
        {
          "internalType": "address",
          "name": "",
          "type": "address"
        }
      ],
      "stateMutability": "view",
      "type": "function"
    },
    {
      "inputs": [
        {
          "internalType": "bytes32[]",
          "name": "capabilities",
          "type": "bytes32[]"
        },
        {
          "components": [
            {
              "internalType": "uint256",
              "name": "basePrice",
              "type": "uint256"
            },
            {
              "internalType": "address",
              "name": "currency",
              "type": "address"
            },
            {
              "internalType": "enum IAgentRegistry.PricingType",
              "name": "pricingType",
              "type": "uint8"
            }
          ],
          "internalType": "struct IAgentRegistry.PricingModel",
          "name": "pricingModel",
          "type": "tuple"
        },
        {
          "internalType": "bytes",
          "name": "routingConfig",
          "type": "bytes"
        }
      ],
      "name": "register",
      "outputs": [],
      "stateMutability": "nonpayable",
      "type": "function"
    },
    {
      "inputs": [
        {
          "internalType": "address",
          "name": "_taskEscrow",
          "type": "address"
        },
        {
          "internalType": "address",
          "name": "_disputeResolver",
          "type": "address"
        }
      ],
      "name": "setRoles",
      "outputs": [],
      "stateMutability": "nonpayable",
      "type": "function"
    },
    {
      "inputs": [
        {
          "internalType": "address",
          "name": "agentId",
          "type": "address"
        },
        {
          "internalType": "string",
          "name": "reason",
          "type": "string"
        }
      ],
      "name": "suspend",
      "outputs": [],
      "stateMutability": "nonpayable",
      "type": "function"
    },
    {
      "inputs": [],
      "name": "taskEscrow",
      "outputs": [
        {
          "internalType": "address",
          "name": "",
          "type": "address"
        }
      ],
      "stateMutability": "view",
      "type": "function"
    },
    {
      "inputs": [
        {
          "internalType": "address",
          "name": "agentId",
          "type": "address"
        },
        {
          "internalType": "bytes32[]",
          "name": "capabilities",
          "type": "bytes32[]"
        }
      ],
      "name": "updateCapabilities",
      "outputs": [],
      "stateMutability": "nonpayable",
      "type": "function"
    },
    {
      "inputs": [
        {
          "internalType": "address",
          "name": "agentId",
          "type": "address"
        },
        {
          "components": [
            {
              "internalType": "uint256",
              "name": "basePrice",
              "type": "uint256"
            },
            {
              "internalType": "address",
              "name": "currency",
              "type": "address"
            },
            {
              "internalType": "enum IAgentRegistry.PricingType",
              "name": "pricingType",
              "type": "uint8"
            }
          ],
          "internalType": "struct IAgentRegistry.PricingModel",
          "name": "pricingModel",
          "type": "tuple"
        }
      ],
      "name": "updatePricing",
      "outputs": [],
      "stateMutability": "nonpayable",
      "type": "function"
    },
    {
      "inputs": [
        {
          "internalType": "address",
          "name": "agentId",
          "type": "address"
        },
        {
          "internalType": "int256",
          "name": "deltaScore",
          "type": "int256"
        },
        {
          "internalType": "bytes32",
          "name": "taskId",
          "type": "bytes32"
        }
      ],
      "name": "updateReputation",
      "outputs": [],
      "stateMutability": "nonpayable",
      "type": "function"
    },
    {
      "inputs": [
        {
          "internalType": "address",
          "name": "",
          "type": "address"
        }
      ],
      "name": "vaultToAgent",
      "outputs": [
        {
          "internalType": "address",
          "name": "",
          "type": "address"
        }
      ],
      "stateMutability": "view",
      "type": "function"
    }
  ],
  "bytecode": "0x608060405234801561001057600080fd5b50600080546001600160a01b0319163317905561213d806100326000396000f3fe608060405234801561001057600080fd5b50600436106101005760003560e01c8063df5e4b1611610097578063f6072a1011610066578063f6072a1014610251578063f936a60414610264578063fb3551ff14610277578063fd66091e1461029757600080fd5b8063df5e4b16146101ec578063ef88c31e146101ff578063ef9a95821461022b578063f5a3f4af1461023e57600080fd5b80638da5cb5b116100d35780638da5cb5b14610186578063ac68dc3914610199578063b7dc1284146101ac578063dcb55c56146101c357600080fd5b806327c4ffe114610105578063299621af1461013557806357a271271461015e57806384ac33ec14610173575b600080fd5b600154610118906001600160a01b031681565b6040516001600160a01b0390911681526020015b60405180910390f35b610118610143366004610dbc565b6006602052600090815260409020546001600160a01b031681565b61017161016c366004610e29565b6102bd565b005b610171610181366004610dbc565b610374565b600054610118906001600160a01b031681565b6101716101a7366004610ec3565b6103f3565b6101b560035481565b60405190815260200161012c565b6101186101d1366004610dbc565b6005602052600090815260409020546001600160a01b031681565b6101716101fa366004610f23565b6104d3565b61011861020d366004610dbc565b6001600160a01b039081166000908152600560205260409020541690565b610171610239366004610f59565b61052a565b600254610118906001600160a01b031681565b61017161025f366004610fde565b6108f3565b610171610272366004611017565b610968565b61028a610285366004610dbc565b610a8f565b60405161012c91906110f8565b6102aa6102a5366004610dbc565b610bef565b60405161012c979695949392919061118f565b6000546001600160a01b031633146103095760405162461bcd60e51b815260206004820152600a60248201526927b7363c9037bbb732b960b11b60448201526064015b60405180910390fd5b6001600160a01b03831660008181526004602052604090819020600501805460ff60a01b1916600160a01b179055517f67af208cffe17db653d12ef0d8defd41a77f58715df97b6b9741d10004020d229061036790859085906111e5565b60405180910390a2505050565b80336001600160a01b0382161461039d5760405162461bcd60e51b815260040161030090611214565b6001600160a01b038216600081815260046020526040808220600501805460ff60a01b1916600160a11b179055517fcd7d9ced6282be80b75fa747c535d58e02a973ac92b9707cb663514caa62fb8d9190a25050565b82336001600160a01b0382161461041c5760405162461bcd60e51b815260040161030090611214565b60208211156104635760405162461bcd60e51b81526020600482015260136024820152724d6178203332206361706162696c697469657360681b6044820152606401610300565b6001600160a01b0384166000908152600460205260409020610489906001018484610c99565b50836001600160a01b03167f64ab161a370a5e447844ea44f23c7d9524e733afda1317c9679eb4b69c86640e84846040516104c592919061126d565b60405180910390a250505050565b81336001600160a01b038216146104fc5760405162461bcd60e51b815260040161030090611214565b6001600160a01b038316600090815260046020526040902082906002016105238282611296565b5050505050565b336000908152600460205260409020546001600160a01b0316156105855760405162461bcd60e51b8152602060048201526012602482015271105b1c9958591e481c9959da5cdd195c995960721b6044820152606401610300565b60208411156105cc5760405162461bcd60e51b81526020600482015260136024820152724d6178203332206361706162696c697469657360681b6044820152606401610300565b60006040516105da90610ce4565b604051809103906000f0801580156105f6573d6000803e3d6000fd5b506001549091506001600160a01b038083169163c0c53b8b913391166106226040890160208a01610dbc565b60405160e085901b6001600160e01b03191681526001600160a01b03938416600482015291831660248301529091166044820152606401600060405180830381600087803b15801561067357600080fd5b505af1158015610687573d6000803e3d6000fd5b505050506000604051806101000160405280336001600160a01b031681526020018888808060200260200160405190810160405280939291908181526020018383602002808284376000920191909152505050908252506020016106f0368890038801886112f2565b81526101f460208201526001600160a01b03841660408201526060016000815242602080830191909152600060409283018190523381526004825291909120825181546001600160a01b0319166001600160a01b039091161781558282015180519394508493919261076a92600185019290910190610cf1565b506040828101518051600280850191825560208301516003860180546001600160a01b039092166001600160a01b031983168117825595850151949593949390926001600160a81b03199092161790600160a01b9084908111156107d0576107d0611087565b021790555050506060820151600482015560808201516005820180546001600160a01b039092166001600160a01b031983168117825560a0850151926001600160a81b03191617600160a01b83600281111561082e5761082e611087565b021790555060c082015160068083019190915560e09092015160079091015533600081815260056020908152604080832080546001600160a01b0389166001600160a01b031991821681179092559084529490915281208054909316909117909155600380549161089e8361137f565b9190505550336001600160a01b03167f386c5306087da5aa6b1e8ac51eddda3163bffc5543b742a7ed4ccc12a83fa546838989426040516108e29493929190611398565b60405180910390a250505050505050565b6000546001600160a01b0316331461093a5760405162461bcd60e51b815260206004820152600a60248201526927b7363c9037bbb732b960b11b6044820152606401610300565b600180546001600160a01b039384166001600160a01b03199182161790915560028054929093169116179055565b6001546001600160a01b031633148061098b57506002546001600160a01b031633145b6109c65760405162461bcd60e51b815260206004820152600c60248201526b155b985d5d1a1bdc9a5e995960a21b6044820152606401610300565b6001600160a01b038316600090815260046020819052604082209081015490916109f085836113ce565b905060008112156109ff575060005b6103e8811315610a0e57506103e85b600483018190556000851315610a3657600783018054906000610a308361137f565b91905055505b600483015460408051848152602081019290925281018590526001600160a01b038716907f74d25cc3b3b47b2f164faa448eb9fff9f58e50bd977ed460110f7f339ee5a3d89060600160405180910390a2505050505050565b610a97610d2c565b6001600160a01b0380831660009081526004602090815260409182902082516101008101845281549094168452600181018054845181850281018501909552808552919385840193909290830182828015610b1157602002820191906000526020600020905b815481526020019060010190808311610afd575b50505091835250506040805160608101825260028481018054835260038601546001600160a01b038116602080860191909152909501949293909290840191600160a01b90910460ff1690811115610b6b57610b6b611087565b6002811115610b7c57610b7c611087565b90525081526004820154602082015260058201546001600160a01b0381166040830152606090910190600160a01b900460ff166002811115610bc057610bc0611087565b6002811115610bd157610bd1611087565b81526006820154602082015260079091015460409091015292915050565b6004602090815260009182526040918290208054835160608101855260028084018054835260038501546001600160a01b0380821697850197909752959093169593949193840191600160a01b900460ff1690811115610c5157610c51611087565b6002811115610c6257610c62611087565b905250600482015460058301546006840154600790940154929391926001600160a01b03821692600160a01b90920460ff16919087565b828054828255906000526020600020908101928215610cd4579160200282015b82811115610cd4578235825591602001919060010190610cb9565b50610ce0929150610d8f565b5090565b610d11806113f783390190565b828054828255906000526020600020908101928215610cd4579160200282015b82811115610cd4578251825591602001919060010190610d11565b60408051610100810182526000815260606020820152908101610d6660408051606081018252600080825260208201819052909182015290565b815260006020820181905260408201819052606082018190526080820181905260a09091015290565b5b80821115610ce05760008155600101610d90565b6001600160a01b0381168114610db957600080fd5b50565b600060208284031215610dce57600080fd5b8135610dd981610da4565b9392505050565b60008083601f840112610df257600080fd5b50813567ffffffffffffffff811115610e0a57600080fd5b602083019150836020828501011115610e2257600080fd5b9250929050565b600080600060408486031215610e3e57600080fd5b8335610e4981610da4565b9250602084013567ffffffffffffffff811115610e6557600080fd5b610e7186828701610de0565b9497909650939450505050565b60008083601f840112610e9057600080fd5b50813567ffffffffffffffff811115610ea857600080fd5b6020830191508360208260051b8501011115610e2257600080fd5b600080600060408486031215610ed857600080fd5b8335610ee381610da4565b9250602084013567ffffffffffffffff811115610eff57600080fd5b610e7186828701610e7e565b600060608284031215610f1d57600080fd5b50919050565b60008060808385031215610f3657600080fd5b8235610f4181610da4565b9150610f508460208501610f0b565b90509250929050565b600080600080600060a08688031215610f7157600080fd5b853567ffffffffffffffff80821115610f8957600080fd5b610f9589838a01610e7e565b9097509550859150610faa8960208a01610f0b565b94506080880135915080821115610fc057600080fd5b50610fcd88828901610de0565b969995985093965092949392505050565b60008060408385031215610ff157600080fd5b8235610ffc81610da4565b9150602083013561100c81610da4565b809150509250929050565b60008060006060848603121561102c57600080fd5b833561103781610da4565b95602085013595506040909401359392505050565b600081518084526020808501945080840160005b8381101561107c57815187529582019590820190600101611060565b509495945050505050565b634e487b7160e01b600052602160045260246000fd5b60038110610db957634e487b7160e01b600052602160045260246000fd5b805182526020808201516001600160a01b03169083015260408101516110e08161109d565b806040840152505050565b6110f48161109d565b9052565b602080825282516001600160a01b031682820152820151610140604083018190526000919061112b61016085018361104c565b9150604085015161113f60608601826110bb565b50606085015160c085015260808501516001600160a01b031660e085015260a08501516111706101008601826110eb565b5060c085015161012085015260e0909401519390920192909252919050565b6001600160a01b0388811682526101208201906111af602084018a6110bb565b60808301889052861660a08301526111c68561109d565b8460c08301528360e08301528261010083015298975050505050505050565b60208152816020820152818360408301376000818301604090810191909152601f909201601f19160101919050565b6020808252600d908201526c139bdd081d1a19481859d95b9d609a1b604082015260600190565b81835260006001600160fb1b0383111561125457600080fd5b8260051b80836020870137939093016020019392505050565b60208152600061128160208301848661123b565b949350505050565b60038110610db957600080fd5b813581556001810160208301356112ac81610da4565b815460408501356112bc81611289565b6112c58161109d565b60ff60a01b60a09190911b166001600160a01b03929092166001600160a81b031991909116171790555050565b60006060828403121561130457600080fd5b6040516060810181811067ffffffffffffffff8211171561133557634e487b7160e01b600052604160045260246000fd5b60405282358152602083013561134a81610da4565b6020820152604083013561135d81611289565b60408201529392505050565b634e487b7160e01b600052601160045260246000fd5b60006001820161139157611391611369565b5060010190565b6001600160a01b03851681526060602082018190526000906113bd908301858761123b565b905082604083015295945050505050565b80820182811260008312801582168215821617156113ee576113ee611369565b50509291505056fe608060405234801561001057600080fd5b50610cf1806100206000396000f3fe608060405234801561001057600080fd5b50600436106100ff5760003560e01c80637b80889b1161009757806395858551116100665780639585855114610253578063ab2f0e5114610266578063c0c53b8b1461026f578063e5a6b10f1461028257600080fd5b80637b80889b146101e15780638da5cb5b146101f85780638f2900d51461020b5780638f76464d1461021e57600080fd5b806327c4ffe1116100d357806327c4ffe11461018d5780633892cc3e146101b8578063443e46a2146101cb57806350e49764146101d957600080fd5b8062f714ce146101045780630312df521461011957806312065fe014610145578063158ef93e14610168575b600080fd5b610117610112366004610a2a565b610295565b005b60075461012d9062010000900461ffff1681565b60405161ffff90911681526020015b60405180910390f35b61014d610396565b6040805193845260208401929092529082015260600161013c565b60075461017d90640100000000900460ff1681565b604051901515815260200161013c565b6001546101a0906001600160a01b031681565b6040516001600160a01b03909116815260200161013c565b6101176101c6366004610a6a565b6103bc565b60075461012d9061ffff1681565b61011761059c565b6101ea60045481565b60405190815260200161013c565b6000546101a0906001600160a01b031681565b61014d610219366004610b01565b6106ea565b61023161022c366004610b01565b61071d565b604080516001600160a01b03909316835261ffff90911660208301520161013c565b610117610261366004610b1a565b610753565b6101ea60035481565b61011761027d366004610b53565b610932565b6002546101a0906001600160a01b031681565b6000546001600160a01b031633146102e05760405162461bcd60e51b81526020600482015260096024820152682737ba1037bbb732b960b91b60448201526064015b60405180910390fd5b8160035410156103325760405162461bcd60e51b815260206004820152601e60248201527f496e73756666696369656e7420617661696c61626c652062616c616e6365000060448201526064016102d7565b81600360008282546103449190610ba9565b9091555050604080513081526001600160a01b03831660208201529081018390527f2717ead6b9200dd235aad468c9809ea400fe33ac69b5bfaa6d3e90fc922b63989060600160405180910390a15050565b60008060006003546004546004546003546103b19190610bc2565b925092509250909192565b6000546001600160a01b031633146104025760405162461bcd60e51b81526020600482015260096024820152682737ba1037bbb732b960b91b60448201526064016102d7565b6000805b8481101561045a5785858281811061042057610420610bd5565b90506040020160200160208101906104389190610beb565b6104469061ffff1683610bc2565b91508061045281610c0f565b915050610406565b508161ffff168361ffff16826104709190610bc2565b61047a9190610bc2565b612710146104c25760405162461bcd60e51b81526020600482015260156024820152744d7573742073756d20746f2031303030302042505360581b60448201526064016102d7565b6104ce600660006109d1565b60005b8481101561052e5760068686838181106104ed576104ed610bd5565b835460018101855560009485526020909420604090910292909201929190910190506105198282610c28565b5050808061052690610c0f565b9150506104d1565b506007805461ffff85811663ffffffff19909216821762010000918616918202179092556040805130815260208101929092528101919091527f4c25f8d3ab0b0927c6b76eb8c03caa690e0f6269eaee15b89ea67c71121acaf9906060015b60405180910390a15050505050565b6000805b600554811015610672576000600582815481106105bf576105bf610bd5565b9060005260206000209060030201600001541180156106025750600581815481106105ec576105ec610bd5565b9060005260206000209060030201600101544310155b15610660576005818154811061061a5761061a610bd5565b906000526020600020906003020160000154826106379190610bc2565b915060006005828154811061064e5761064e610bd5565b60009182526020909120600390910201555b8061066a81610c0f565b9150506105a0565b50600081116106b75760405162461bcd60e51b81526020600482015260116024820152704e6f20756e6c6f636b65642066756e647360781b60448201526064016102d7565b80600460008282546106c99190610ba9565b9250508190555080600360008282546106e29190610bc2565b909155505050565b600581815481106106fa57600080fd5b600091825260209091206003909102018054600182015460029092015490925083565b6006818154811061072d57600080fd5b6000918252602090912001546001600160a01b0381169150600160a01b900461ffff1682565b6001546001600160a01b0316331461079e5760405162461bcd60e51b815260206004820152600e60248201526d4e6f74205461736b457363726f7760901b60448201526064016102d7565b600754600090612710906107b69061ffff1686610c82565b6107c09190610c99565b600754909150600090612710906107e19062010000900461ffff1687610c82565b6107eb9190610c99565b905081156108695781600460008282546108059190610bc2565b909155505060408051606081019091528281526005906020810161082c4362034bc0610bc2565b8152602090810187905282546001818101855560009485529382902083516003909202019081559082015192810192909255604001516002909101555b80156108875780600360008282546108819190610bc2565b90915550505b60005b6006548110156108ec576000612710600683815481106108ac576108ac610bd5565b6000918252602090912001546108cd90600160a01b900461ffff1689610c82565b6108d79190610c99565b508190506108e481610c0f565b91505061088a565b506040805185815260208101879052908101839052606081018290527fbcfa5b81e5dfeb9cca18ff55beeefe4f9f70bcc7c4d07a1f0bb68b51b9ba9f229060800161058d565b600754640100000000900460ff161561097c5760405162461bcd60e51b815260206004820152600c60248201526b105b1c9958591e481a5b9a5d60a21b60448201526064016102d7565b600080546001600160a01b03199081166001600160a01b0395861617909155600180548216938516939093179092556002805490921692169190911790556007805464ffffffffff19166401138807d0179055565b50805460008255906000526020600020908101906109ef91906109f2565b50565b5b80821115610a115780546001600160b01b03191681556001016109f3565b5090565b6001600160a01b03811681146109ef57600080fd5b60008060408385031215610a3d57600080fd5b823591506020830135610a4f81610a15565b809150509250929050565b61ffff811681146109ef57600080fd5b60008060008060608587031215610a8057600080fd5b843567ffffffffffffffff80821115610a9857600080fd5b818701915087601f830112610aac57600080fd5b813581811115610abb57600080fd5b8860208260061b8501011115610ad057600080fd5b60209283019650945050850135610ae681610a5a565b91506040850135610af681610a5a565b939692955090935050565b600060208284031215610b1357600080fd5b5035919050565b600080600060608486031215610b2f57600080fd5b83359250602084013591506040840135610b4881610a15565b809150509250925092565b600080600060608486031215610b6857600080fd5b8335610b7381610a15565b92506020840135610b8381610a15565b91506040840135610b4881610a15565b634e487b7160e01b600052601160045260246000fd5b81810381811115610bbc57610bbc610b93565b92915050565b80820180821115610bbc57610bbc610b93565b634e487b7160e01b600052603260045260246000fd5b600060208284031215610bfd57600080fd5b8135610c0881610a5a565b9392505050565b600060018201610c2157610c21610b93565b5060010190565b8135610c3381610a15565b81546001600160a01b031981166001600160a01b039290921691821783556020840135610c5f81610a5a565b6001600160b01b03199190911690911760a09190911b61ffff60a01b1617905550565b8082028115828204841417610bbc57610bbc610b93565b600082610cb657634e487b7160e01b600052601260045260246000fd5b50049056fea2646970667358221220c8cf772b7757781d2936873b8f079b0161ffb95d7d6749f0ddf8704cc415a78f64736f6c63430008140033a2646970667358221220279bfe72fdd3366dcad7e73c295c4d777f9e64a690a22735db1b535513adc7d964736f6c63430008140033",
  "linkReferences": {},
  "deployedLinkReferences": {}
}